8=FIX.4.4|9=77|35=A|34=1|49=FHINDEX|52=20160613-20:50:02.563|56=TESTINDEX|98=0|108=60|141=Y|10=236|8=FIX.4.4|9=136|35=V|34=2|49=FHINDEX|50=1|52=20160613-20:50:02.654|56=TESTINDEX|262=-6db8a8667796ba12|263=1|264=1|146=1|55=INDEXES|207=XSGO|267=1|269=3|10=010|