20160613-18:49:06.583: 8=FIX.4.4|9=77|35=A|34=1|49=FHINDEX|52=20160613-18:49:06.583|56=TESTINDEX|98=0|108=60|141=Y|10=001|
20160613-18:49:06.603: 8=FIX.4.4|9=77|35=A|34=1|49=TESTINDEX|52=20160613-18:49:10.198|56=FHINDEX|98=0|108=60|141=Y|10=254|
20160613-18:49:06.680: 8=FIX.4.4|9=136|35=V|34=2|49=FHINDEX|50=1|52=20160613-18:49:06.679|56=TESTINDEX|262=-60e10699a524b6bb|263=1|264=1|146=1|55=INDEXES|207=XSGO|267=1|269=3|10=020|
20160613-18:49:06.681: 8=FIX.4.4|9=182|35=W|34=2|49=TESTINDEX|52=20160613-18:49:10.285|56=FHINDEX|55=IGPA MID (Sin dividendos)|262=-60e10699a524b6bb|268=1|269=3|270=13556.698162731|271=3807633150|290=2|811=-0.67|107=XSGO|10=161|
20160613-18:49:06.685: 8=FIX.4.4|9=183|35=W|34=3|49=TESTINDEX|52=20160613-18:49:10.286|56=FHINDEX|55=IGPA SMALL (Sin dividendos)|262=-60e10699a524b6bb|268=1|269=3|270=19550.633122206|271=900165383|290=3|811=-0.14|107=XSGO|10=249|
20160613-18:49:06.685: 8=FIX.4.4|9=178|35=W|34=4|49=TESTINDEX|52=20160613-18:49:10.287|56=FHINDEX|55=BANCA (Con dividendos)|262=-60e10699a524b6bb|268=1|269=3|270=6876.259239015|271=3592586168|290=4|811=-0.38|107=XSGO|10=187|
20160613-18:49:06.685: 8=FIX.4.4|9=178|35=W|34=5|49=TESTINDEX|52=20160613-18:49:10.287|56=FHINDEX|55=RETAIL (Sin dividendos)|262=-60e10699a524b6bb|268=1|269=3|270=3972.011983008|271=2403188681|290=5|811=0.71|107=XSGO|10=235|
20160613-18:49:06.685: 8=FIX.4.4|9=179|35=W|34=6|49=TESTINDEX|52=20160613-18:49:10.287|56=FHINDEX|55=CONSUMO (Con dividendos)|262=-60e10699a524b6bb|268=1|269=3|270=5303.175765176|271=813048275|290=6|811=-1.19|107=XSGO|10=073|
20160613-18:49:06.685: 8=FIX.4.4|9=184|35=W|34=7|49=TESTINDEX|52=20160613-18:49:10.287|56=FHINDEX|55=CONST.&INMOB. (Con dividendos)|262=-60e10699a524b6bb|268=1|269=3|270=4044.681722174|271=44683469|290=7|811=-0.19|107=XSGO|10=112|
20160613-18:49:06.685: 8=FIX.4.4|9=184|35=W|34=8|49=TESTINDEX|52=20160613-18:49:10.287|56=FHINDEX|55=COMMODITIES (Sin dividendos)|262=-60e10699a524b6bb|268=1|269=3|270=2414.177988609|271=2785185362|290=8|811=-0.96|107=XSGO|10=179|
20160613-18:49:06.686: 8=FIX.4.4|9=181|35=W|34=9|49=TESTINDEX|52=20160613-18:49:10.287|56=FHINDEX|55=INTER-10 (Sin dividendos)|262=-60e10699a524b6bb|268=1|269=3|270=3591.871445685|271=10013680340|290=9|811=-0.3|107=XSGO|10=100|
20160613-18:49:06.686: 8=FIX.4.4|9=180|35=W|34=10|49=TESTINDEX|52=20160613-18:49:10.288|56=FHINDEX|55=IGPA (Con dividendos)|262=-60e10699a524b6bb|268=1|269=3|270=19491.11795755|271=16459391166|290=10|811=-0.42|107=XSGO|10=005|
20160613-18:49:06.686: 8=FIX.4.4|9=184|35=W|34=11|49=TESTINDEX|52=20160613-18:49:10.288|56=FHINDEX|55=INDUSTRIAL (Con dividendos)|262=-60e10699a524b6bb|268=1|269=3|270=1755.662686149|271=615516665|290=11|811=-0.74|107=XSGO|10=134|
20160613-18:49:06.686: 8=FIX.4.4|9=180|35=W|34=12|49=TESTINDEX|52=20160613-18:49:10.288|56=FHINDEX|55=IPSA (Sin dividendos)|262=-60e10699a524b6bb|268=1|269=3|270=3069.395038897|271=16060435721|290=12|811=-0.42|107=XSGO|10=021|
20160613-18:49:06.686: 8=FIX.4.4|9=186|35=W|34=13|49=TESTINDEX|52=20160613-18:49:10.288|56=FHINDEX|55=CONST.&INMOB. (Sin dividendos)|262=-60e10699a524b6bb|268=1|269=3|270=2749.473288983|271=44683469|290=13|811=-0.19|107=XSGO|10=239|
20160613-18:49:06.686: 8=FIX.4.4|9=179|35=W|34=14|49=TESTINDEX|52=20160613-18:49:10.288|56=FHINDEX|55=RETAIL (Con dividendos)|262=-60e10699a524b6bb|268=1|269=3|270=4674.05727804|271=2403188681|290=14|811=0.71|107=XSGO|10=022|
20160613-18:49:06.686: 8=FIX.4.4|9=181|35=W|34=15|49=TESTINDEX|52=20160613-18:49:10.288|56=FHINDEX|55=IGPA (Sin dividendos)|262=-60e10699a524b6bb|268=1|269=3|270=14849.516272763|271=16459391166|290=15|811=-0.42|107=XSGO|10=075|
20160613-18:49:06.686: 8=FIX.4.4|9=183|35=W|34=16|49=TESTINDEX|52=20160613-18:49:10.288|56=FHINDEX|55=UTILITIES (Con dividendos)|262=-60e10699a524b6bb|268=1|269=3|270=4891.41008761|271=4440255964|290=16|811=-0.63|107=XSGO|10=059|
20160613-18:49:06.687: 8=FIX.4.4|9=183|35=W|34=17|49=TESTINDEX|52=20160613-18:49:10.289|56=FHINDEX|55=INTER-10 (Con dividendos)|262=-60e10699a524b6bb|268=1|269=3|270=4748.044897187|271=10013680340|290=17|811=-0.3|107=XSGO|10=193|
20160613-18:49:06.687: 8=FIX.4.4|9=186|35=W|34=18|49=TESTINDEX|52=20160613-18:49:10.289|56=FHINDEX|55=COMMODITIES (Con dividendos)|262=-60e10699a524b6bb|268=1|269=3|270=2965.345543356|271=2785185362|290=18|811=-0.96|107=XSGO|10=009|
20160613-18:49:06.687: 8=FIX.4.4|9=180|35=W|34=19|49=TESTINDEX|52=20160613-18:49:10.289|56=FHINDEX|55=BANCA (Sin dividendos)|262=-60e10699a524b6bb|268=1|269=3|270=4245.776211182|271=3592586168|290=19|811=-0.38|107=XSGO|10=031|
20160613-18:49:06.687: 8=FIX.4.4|9=180|35=W|34=20|49=TESTINDEX|52=20160613-18:49:10.289|56=FHINDEX|55=IPSA (Con dividendos)|262=-60e10699a524b6bb|268=1|269=3|270=3937.971749715|271=16060435721|290=20|811=-0.42|107=XSGO|10=012|
20160613-18:49:06.687: 8=FIX.4.4|9=186|35=W|34=21|49=TESTINDEX|52=20160613-18:49:10.289|56=FHINDEX|55=IGPA LARGE (Con dividendos)|262=-60e10699a524b6bb|268=1|269=3|270=17383.89019753|271=11454619116|290=21|811=-0.37|107=XSGO|10=147|
20160613-18:49:06.688: 8=FIX.4.4|9=187|35=W|34=22|49=TESTINDEX|52=20160613-18:49:10.289|56=FHINDEX|55=IGPA LARGE (Sin dividendos)|262=-60e10699a524b6bb|268=1|269=3|270=13574.737221873|271=11454619116|290=22|811=-0.37|107=XSGO|10=204|
20160613-18:49:06.688: 8=FIX.4.4|9=183|35=W|34=23|49=TESTINDEX|52=20160613-18:49:10.290|56=FHINDEX|55=INDUSTRIAL (Sin dividendos)|262=-60e10699a524b6bb|268=1|269=3|270=1417.97281782|271=615516665|290=23|811=-0.74|107=XSGO|10=085|
20160613-18:49:06.688: 8=FIX.4.4|9=181|35=W|34=24|49=TESTINDEX|52=20160613-18:49:10.290|56=FHINDEX|55=CONSUMO (Sin dividendos)|262=-60e10699a524b6bb|268=1|269=3|270=3898.931635262|271=813048275|290=24|811=-1.19|107=XSGO|10=175|
20160613-18:49:06.688: 8=FIX.4.4|9=184|35=W|34=25|49=TESTINDEX|52=20160613-18:49:10.290|56=FHINDEX|55=IGPA MID (Con dividendos)|262=-60e10699a524b6bb|268=1|269=3|270=18986.452400041|271=3807633150|290=25|811=-0.67|107=XSGO|10=244|
20160613-18:49:06.688: 8=FIX.4.4|9=185|35=W|34=26|49=TESTINDEX|52=20160613-18:49:10.290|56=FHINDEX|55=IGPA SMALL (Con dividendos)|262=-60e10699a524b6bb|268=1|269=3|270=27286.629106653|271=900165383|290=26|811=-0.14|107=XSGO|10=104|
20160613-18:49:06.689: 8=FIX.4.4|9=184|35=W|34=27|49=TESTINDEX|52=20160613-18:49:10.291|56=FHINDEX|55=UTILITIES (Sin dividendos)|262=-60e10699a524b6bb|268=1|269=3|270=3605.259251198|271=4440255964|290=27|811=-0.63|107=XSGO|10=123|
20160613-18:49:22.619: 8=FIX.4.4|9=183|35=X|34=28|49=TESTINDEX|52=20160613-18:49:26.217|56=FHINDEX|262=-60e10699a524b6bb|268=1|279=1|269=3|55=IGPA LARGE (Sin dividendos)|270=13574.674194473|271=11455239046|290=1|811=-0.37|10=154|
20160613-18:49:22.620: 8=FIX.4.4|9=176|35=X|34=29|49=TESTINDEX|52=20160613-18:49:26.219|56=FHINDEX|262=-60e10699a524b6bb|268=1|279=1|269=3|55=RETAIL (Sin dividendos)|270=3971.934225697|271=2403808611|290=1|811=0.71|10=032|
20160613-18:49:22.620: 8=FIX.4.4|9=183|35=X|34=30|49=TESTINDEX|52=20160613-18:49:26.224|56=FHINDEX|262=-60e10699a524b6bb|268=1|279=1|269=3|55=IGPA LARGE (Con dividendos)|270=17383.809484262|271=11455239046|290=1|811=-0.37|10=135|
20160613-18:49:22.621: 8=FIX.4.4|9=176|35=X|34=31|49=TESTINDEX|52=20160613-18:49:26.224|56=FHINDEX|262=-60e10699a524b6bb|268=1|279=1|269=3|55=IPSA (Con dividendos)|270=3937.959907852|271=16061055651|290=1|811=-0.42|10=222|
20160613-18:49:22.622: 8=FIX.4.4|9=180|35=X|34=32|49=TESTINDEX|52=20160613-18:49:26.225|56=FHINDEX|262=-60e10699a524b6bb|268=1|279=1|269=3|55=INTER-10 (Sin dividendos)|270=3591.847779347|271=10014300270|290=1|811=-0.31|10=178|
20160613-18:49:22.624: 8=FIX.4.4|9=177|35=X|34=33|49=TESTINDEX|52=20160613-18:49:26.228|56=FHINDEX|262=-60e10699a524b6bb|268=1|279=1|269=3|55=IGPA (Sin dividendos)|270=14849.477458064|271=16460011096|290=1|811=-0.42|10=012|
20160613-18:49:22.628: 8=FIX.4.4|9=176|35=X|34=34|49=TESTINDEX|52=20160613-18:49:26.232|56=FHINDEX|262=-60e10699a524b6bb|268=1|279=1|269=3|55=RETAIL (Con dividendos)|270=4673.965777277|271=2403808611|290=1|811=0.71|10=023|
20160613-18:49:22.632: 8=FIX.4.4|9=180|35=X|34=35|49=TESTINDEX|52=20160613-18:49:26.236|56=FHINDEX|262=-60e10699a524b6bb|268=1|279=1|269=3|55=INTER-10 (Con dividendos)|270=4748.013612984|271=10014300270|290=1|811=-0.31|10=156|
20160613-18:49:22.637: 8=FIX.4.4|9=176|35=X|34=36|49=TESTINDEX|52=20160613-18:49:26.241|56=FHINDEX|262=-60e10699a524b6bb|268=1|279=1|269=3|55=IPSA (Sin dividendos)|270=3069.385808929|271=16061055651|290=1|811=-0.42|10=230|
20160613-18:49:22.641: 8=FIX.4.4|9=176|35=X|34=37|49=TESTINDEX|52=20160613-18:49:26.245|56=FHINDEX|262=-60e10699a524b6bb|268=1|279=1|269=3|55=IGPA (Con dividendos)|270=19491.06701031|271=16460011096|290=1|811=-0.42|10=183|
20160613-18:49:42.415: 8=FIX.4.4|9=183|35=X|34=38|49=TESTINDEX|52=20160613-18:49:46.017|56=FHINDEX|262=-60e10699a524b6bb|268=1|279=1|269=3|55=IGPA LARGE (Sin dividendos)|270=13574.674194473|271=11455662344|290=1|811=-0.37|10=156|
20160613-18:49:42.417: 8=FIX.4.4|9=183|35=X|34=39|49=TESTINDEX|52=20160613-18:49:46.021|56=FHINDEX|262=-60e10699a524b6bb|268=1|279=1|269=3|55=IGPA LARGE (Con dividendos)|270=17383.809484262|271=11455662344|290=1|811=-0.37|10=142|
20160613-18:49:42.418: 8=FIX.4.4|9=176|35=X|34=40|49=TESTINDEX|52=20160613-18:49:46.022|56=FHINDEX|262=-60e10699a524b6bb|268=1|279=1|269=3|55=IPSA (Con dividendos)|270=3937.959907852|271=16061481228|290=1|811=-0.42|10=223|
20160613-18:49:42.418: 8=FIX.4.4|9=180|35=X|34=41|49=TESTINDEX|52=20160613-18:49:46.022|56=FHINDEX|262=-60e10699a524b6bb|268=1|279=1|269=3|55=INTER-10 (Sin dividendos)|270=3591.847779347|271=10014723568|290=1|811=-0.31|10=194|
20160613-18:49:42.420: 8=FIX.4.4|9=176|35=X|34=42|49=TESTINDEX|52=20160613-18:49:46.023|56=FHINDEX|262=-60e10699a524b6bb|268=1|279=1|269=3|55=RETAIL (Sin dividendos)|270=3971.934225697|271=2404231909|290=1|811=0.71|10=023|
20160613-18:49:42.423: 8=FIX.4.4|9=181|35=X|34=43|49=TESTINDEX|52=20160613-18:49:46.027|56=FHINDEX|262=-60e10699a524b6bb|268=1|279=1|269=3|55=IGPA SMALL (Con dividendos)|270=27286.629106653|271=900167662|290=1|811=-0.14|10=048|
20160613-18:49:42.428: 8=FIX.4.4|9=182|35=X|34=44|49=TESTINDEX|52=20160613-18:49:46.033|56=FHINDEX|262=-60e10699a524b6bb|268=1|279=1|269=3|55=COMMODITIES (Sin dividendos)|270=2414.177988609|271=2785187641|290=1|811=-0.96|10=213|
20160613-18:49:42.433: 8=FIX.4.4|9=177|35=X|34=45|49=TESTINDEX|52=20160613-18:49:46.037|56=FHINDEX|262=-60e10699a524b6bb|268=1|279=1|269=3|55=IGPA (Sin dividendos)|270=14849.477458064|271=16460436673|290=1|811=-0.42|10=027|
20160613-18:49:42.437: 8=FIX.4.4|9=182|35=X|34=46|49=TESTINDEX|52=20160613-18:49:46.042|56=FHINDEX|262=-60e10699a524b6bb|268=1|279=1|269=3|55=COMMODITIES (Con dividendos)|270=2965.345543356|271=2785187641|290=1|811=-0.96|10=199|
20160613-18:49:42.442: 8=FIX.4.4|9=176|35=X|34=47|49=TESTINDEX|52=20160613-18:49:46.047|56=FHINDEX|262=-60e10699a524b6bb|268=1|279=1|269=3|55=RETAIL (Con dividendos)|270=4673.965777277|271=2404231909|290=1|811=0.71|10=034|
20160613-18:49:42.447: 8=FIX.4.4|9=180|35=X|34=48|49=TESTINDEX|52=20160613-18:49:46.052|56=FHINDEX|262=-60e10699a524b6bb|268=1|279=1|269=3|55=INTER-10 (Con dividendos)|270=4748.013612984|271=10014723568|290=1|811=-0.31|10=177|
20160613-18:49:42.452: 8=FIX.4.4|9=176|35=X|34=49|49=TESTINDEX|52=20160613-18:49:46.056|56=FHINDEX|262=-60e10699a524b6bb|268=1|279=1|269=3|55=IPSA (Sin dividendos)|270=3069.385808929|271=16061481228|290=1|811=-0.42|10=243|
20160613-18:49:42.456: 8=FIX.4.4|9=181|35=X|34=50|49=TESTINDEX|52=20160613-18:49:46.060|56=FHINDEX|262=-60e10699a524b6bb|268=1|279=1|269=3|55=IGPA SMALL (Sin dividendos)|270=19550.633122206|271=900167662|290=1|811=-0.14|10=035|
20160613-18:49:42.460: 8=FIX.4.4|9=176|35=X|34=51|49=TESTINDEX|52=20160613-18:49:46.064|56=FHINDEX|262=-60e10699a524b6bb|268=1|279=1|269=3|55=IGPA (Con dividendos)|270=19491.06701031|271=16460436673|290=1|811=-0.42|10=192|
20160613-18:49:52.675: 8=FIX.4.4|9=176|35=X|34=52|49=TESTINDEX|52=20160613-18:49:56.279|56=FHINDEX|262=-60e10699a524b6bb|268=1|279=1|269=3|55=IPSA (Con dividendos)|270=3937.959907852|271=16061962190|290=1|811=-0.42|10=243|
20160613-18:49:52.675: 8=FIX.4.4|9=181|35=X|34=53|49=TESTINDEX|52=20160613-18:49:56.280|56=FHINDEX|262=-60e10699a524b6bb|268=1|279=1|269=3|55=IGPA SMALL (Con dividendos)|270=27286.629106653|271=900648624|290=1|811=-0.14|10=053|
20160613-18:49:52.676: 8=FIX.4.4|9=176|35=X|34=54|49=TESTINDEX|52=20160613-18:49:56.281|56=FHINDEX|262=-60e10699a524b6bb|268=1|279=1|269=3|55=BANCA (Sin dividendos)|270=4245.776211182|271=3593067130|290=1|811=-0.38|10=215|
20160613-18:49:52.678: 8=FIX.4.4|9=177|35=X|34=55|49=TESTINDEX|52=20160613-18:49:56.283|56=FHINDEX|262=-60e10699a524b6bb|268=1|279=1|269=3|55=IGPA (Sin dividendos)|270=14849.477458064|271=16460917635|290=1|811=-0.42|10=034|
20160613-18:49:52.680: 8=FIX.4.4|9=176|35=X|34=56|49=TESTINDEX|52=20160613-18:49:56.285|56=FHINDEX|262=-60e10699a524b6bb|268=1|279=1|269=3|55=BANCA (Con dividendos)|270=6876.259239015|271=3593067130|290=1|811=-0.38|10=224|
20160613-18:49:52.682: 8=FIX.4.4|9=176|35=X|34=57|49=TESTINDEX|52=20160613-18:49:56.288|56=FHINDEX|262=-60e10699a524b6bb|268=1|279=1|269=3|55=IPSA (Sin dividendos)|270=3069.385808929|271=16061962190|290=1|811=-0.42|10=252|
20160613-18:49:52.685: 8=FIX.4.4|9=181|35=X|34=58|49=TESTINDEX|52=20160613-18:49:56.290|56=FHINDEX|262=-60e10699a524b6bb|268=1|279=1|269=3|55=IGPA SMALL (Sin dividendos)|270=19550.633122206|271=900648624|290=1|811=-0.14|10=051|
20160613-18:49:52.687: 8=FIX.4.4|9=176|35=X|34=59|49=TESTINDEX|52=20160613-18:49:56.292|56=FHINDEX|262=-60e10699a524b6bb|268=1|279=1|269=3|55=IGPA (Con dividendos)|270=19491.06701031|271=16460917635|290=1|811=-0.42|10=206|
20160613-18:50:07.543: 8=FIX.4.4|9=59|35=0|34=3|49=FHINDEX|52=20160613-18:50:07.543|56=TESTINDEX|10=158|
20160613-18:50:31.751: 8=FIX.4.4|9=176|35=X|34=60|49=TESTINDEX|52=20160613-18:50:35.357|56=FHINDEX|262=-60e10699a524b6bb|268=1|279=1|269=3|55=RETAIL (Sin dividendos)|270=3971.934225697|271=2404632409|290=1|811=0.71|10=023|
20160613-18:50:31.752: 8=FIX.4.4|9=181|35=X|34=61|49=TESTINDEX|52=20160613-18:50:35.358|56=FHINDEX|262=-60e10699a524b6bb|268=1|279=1|269=3|55=IGPA SMALL (Con dividendos)|270=27286.629106653|271=901049124|290=1|811=-0.14|10=038|
20160613-18:50:31.753: 8=FIX.4.4|9=177|35=X|34=62|49=TESTINDEX|52=20160613-18:50:35.360|56=FHINDEX|262=-60e10699a524b6bb|268=1|279=1|269=3|55=IGPA (Sin dividendos)|270=14849.477458064|271=16461318135|290=1|811=-0.42|10=008|
20160613-18:50:31.754: 8=FIX.4.4|9=176|35=X|34=63|49=TESTINDEX|52=20160613-18:50:35.361|56=FHINDEX|262=-60e10699a524b6bb|268=1|279=1|269=3|55=RETAIL (Con dividendos)|270=4673.965777277|271=2404632409|290=1|811=0.71|10=021|
20160613-18:50:31.756: 8=FIX.4.4|9=181|35=X|34=64|49=TESTINDEX|52=20160613-18:50:35.364|56=FHINDEX|262=-60e10699a524b6bb|268=1|279=1|269=3|55=IGPA SMALL (Sin dividendos)|270=19550.633122206|271=901049124|290=1|811=-0.14|10=030|
20160613-18:50:31.759: 8=FIX.4.4|9=176|35=X|34=65|49=TESTINDEX|52=20160613-18:50:35.366|56=FHINDEX|262=-60e10699a524b6bb|268=1|279=1|269=3|55=IGPA (Con dividendos)|270=19491.06701031|271=16461318135|290=1|811=-0.42|10=185|
20160613-18:50:51.899: 8=FIX.4.4|9=180|35=X|34=66|49=TESTINDEX|52=20160613-18:50:55.506|56=FHINDEX|262=-60e10699a524b6bb|268=1|279=1|269=3|55=INDUSTRIAL (Sin dividendos)|270=1416.359242863|271=616671580|290=1|811=-0.86|10=080|
20160613-18:50:51.899: 8=FIX.4.4|9=175|35=X|34=67|49=TESTINDEX|52=20160613-18:50:55.507|56=FHINDEX|262=-60e10699a524b6bb|268=1|279=1|269=3|55=IPSA (Con dividendos)|270=3937.67253772|271=16063117105|290=1|811=-0.43|10=161|
20160613-18:50:51.902: 8=FIX.4.4|9=180|35=X|34=68|49=TESTINDEX|52=20160613-18:50:55.510|56=FHINDEX|262=-60e10699a524b6bb|268=1|279=1|269=3|55=IGPA SMALL (Con dividendos)|270=27273.14046906|271=902204039|290=1|811=-0.19|10=236|
20160613-18:50:51.904: 8=FIX.4.4|9=177|35=X|34=69|49=TESTINDEX|52=20160613-18:50:55.512|56=FHINDEX|262=-60e10699a524b6bb|268=1|279=1|269=3|55=IGPA (Sin dividendos)|270=14848.535529822|271=16462473050|290=1|811=-0.42|10=010|
20160613-18:50:51.907: 8=FIX.4.4|9=180|35=X|34=70|49=TESTINDEX|52=20160613-18:50:55.515|56=FHINDEX|262=-60e10699a524b6bb|268=1|279=1|269=3|55=INDUSTRIAL (Con dividendos)|270=1753.664838725|271=616671580|290=1|811=-0.86|10=076|
20160613-18:50:51.909: 8=FIX.4.4|9=176|35=X|34=71|49=TESTINDEX|52=20160613-18:50:55.518|56=FHINDEX|262=-60e10699a524b6bb|268=1|279=1|269=3|55=IPSA (Sin dividendos)|270=3069.161822442|271=16063117105|290=1|811=-0.43|10=204|
20160613-18:50:51.912: 8=FIX.4.4|9=181|35=X|34=72|49=TESTINDEX|52=20160613-18:50:55.520|56=FHINDEX|262=-60e10699a524b6bb|268=1|279=1|269=3|55=IGPA SMALL (Sin dividendos)|270=19540.968630345|271=902204039|290=1|811=-0.19|10=047|
20160613-18:50:51.916: 8=FIX.4.4|9=177|35=X|34=73|49=TESTINDEX|52=20160613-18:50:55.524|56=FHINDEX|262=-60e10699a524b6bb|268=1|279=1|269=3|55=IGPA (Con dividendos)|270=19489.830657951|271=16462473050|290=1|811=-0.42|10=007|
20160613-18:51:01.798: 8=FIX.4.4|9=183|35=X|34=74|49=TESTINDEX|52=20160613-18:51:05.407|56=FHINDEX|262=-60e10699a524b6bb|268=1|279=1|269=3|55=IGPA LARGE (Sin dividendos)|270=13575.106346711|271=11463006257|290=1|811=-0.37|10=126|
20160613-18:51:01.801: 8=FIX.4.4|9=176|35=X|34=75|49=TESTINDEX|52=20160613-18:51:05.410|56=FHINDEX|262=-60e10699a524b6bb|268=1|279=1|269=3|55=RETAIL (Sin dividendos)|270=3972.400769562|271=2406142451|290=1|811=0.72|10=006|
20160613-18:51:01.805: 8=FIX.4.4|9=183|35=X|34=76|49=TESTINDEX|52=20160613-18:51:05.413|56=FHINDEX|262=-60e10699a524b6bb|268=1|279=1|269=3|55=IGPA LARGE (Con dividendos)|270=17384.362901019|271=11463006257|290=1|811=-0.37|10=119|
20160613-18:51:01.808: 8=FIX.4.4|9=179|35=X|34=77|49=TESTINDEX|52=20160613-18:51:05.417|56=FHINDEX|262=-60e10699a524b6bb|268=1|279=1|269=3|55=INTER-10 (Sin dividendos)|270=3591.989777375|271=10016233610|290=1|811=-0.3|10=150|
20160613-18:51:01.811: 8=FIX.4.4|9=176|35=X|34=78|49=TESTINDEX|52=20160613-18:51:05.420|56=FHINDEX|262=-60e10699a524b6bb|268=1|279=1|269=3|55=IPSA (Con dividendos)|270=3937.753732368|271=16075201018|290=1|811=-0.42|10=206|
20160613-18:51:01.815: 8=FIX.4.4|9=180|35=X|34=79|49=TESTINDEX|52=20160613-18:51:05.423|56=FHINDEX|262=-60e10699a524b6bb|268=1|279=1|269=3|55=IGPA SMALL (Con dividendos)|270=27273.14046906|271=906944039|290=1|811=-0.19|10=252|
20160613-18:51:01.817: 8=FIX.4.4|9=176|35=X|34=80|49=TESTINDEX|52=20160613-18:51:05.425|56=FHINDEX|262=-60e10699a524b6bb|268=1|279=1|269=3|55=BANCA (Sin dividendos)|270=4245.843936295|271=3598901001|290=1|811=-0.38|10=214|
20160613-18:51:01.820: 8=FIX.4.4|9=177|35=X|34=81|49=TESTINDEX|52=20160613-18:51:05.428|56=FHINDEX|262=-60e10699a524b6bb|268=1|279=1|269=3|55=IGPA (Sin dividendos)|270=14848.801665801|271=16474556963|290=1|811=-0.42|10=018|
20160613-18:51:01.823: 8=FIX.4.4|9=176|35=X|34=82|49=TESTINDEX|52=20160613-18:51:05.431|56=FHINDEX|262=-60e10699a524b6bb|268=1|279=1|269=3|55=BANCA (Con dividendos)|270=6876.368923418|271=3598901001|290=1|811=-0.38|10=210|
20160613-18:51:01.826: 8=FIX.4.4|9=176|35=X|34=83|49=TESTINDEX|52=20160613-18:51:05.434|56=FHINDEX|262=-60e10699a524b6bb|268=1|279=1|269=3|55=RETAIL (Con dividendos)|270=4674.514781851|271=2406142451|290=1|811=0.72|10=002|
20160613-18:51:01.828: 8=FIX.4.4|9=179|35=X|34=84|49=TESTINDEX|52=20160613-18:51:05.437|56=FHINDEX|262=-60e10699a524b6bb|268=1|279=1|269=3|55=INTER-10 (Con dividendos)|270=4748.201318203|271=10016233610|290=1|811=-0.3|10=103|
20160613-18:51:01.831: 8=FIX.4.4|9=176|35=X|34=85|49=TESTINDEX|52=20160613-18:51:05.439|56=FHINDEX|262=-60e10699a524b6bb|268=1|279=1|269=3|55=IPSA (Sin dividendos)|270=3069.225108434|271=16075201018|290=1|811=-0.42|10=205|
20160613-18:51:01.835: 8=FIX.4.4|9=181|35=X|34=86|49=TESTINDEX|52=20160613-18:51:05.443|56=FHINDEX|262=-60e10699a524b6bb|268=1|279=1|269=3|55=IGPA SMALL (Sin dividendos)|270=19540.968630345|271=906944039|290=1|811=-0.19|10=067|
20160613-18:51:01.837: 8=FIX.4.4|9=177|35=X|34=87|49=TESTINDEX|52=20160613-18:51:05.446|56=FHINDEX|262=-60e10699a524b6bb|268=1|279=1|269=3|55=IGPA (Con dividendos)|270=19490.179981638|271=16474556963|290=1|811=-0.42|10=029|
20160613-18:51:07.544: 8=FIX.4.4|9=59|35=0|34=4|49=FHINDEX|52=20160613-18:51:07.544|56=TESTINDEX|10=161|
20160613-18:51:59.664: 8=FIX.4.4|9=77|35=A|34=1|49=FHINDEX|52=20160613-18:51:59.664|56=TESTINDEX|98=0|108=60|141=Y|10=002|
20160613-18:51:59.685: 8=FIX.4.4|9=77|35=A|34=1|49=TESTINDEX|52=20160613-18:52:03.289|56=FHINDEX|98=0|108=60|141=Y|10=251|
20160613-18:51:59.780: 8=FIX.4.4|9=136|35=V|34=2|49=FHINDEX|50=1|52=20160613-18:51:59.780|56=TESTINDEX|262=-7e4fbb11f556b23e|263=1|264=1|146=1|55=INDEXES|207=XSGO|267=1|269=3|10=112|
20160613-18:51:59.782: 8=FIX.4.4|9=182|35=W|34=2|49=TESTINDEX|52=20160613-18:52:03.393|56=FHINDEX|55=IGPA MID (Sin dividendos)|262=-7e4fbb11f556b23e|268=1|269=3|270=13556.698162731|271=3807633150|290=2|811=-0.67|107=XSGO|10=255|
20160613-18:51:59.785: 8=FIX.4.4|9=183|35=W|34=3|49=TESTINDEX|52=20160613-18:52:03.394|56=FHINDEX|55=IGPA SMALL (Sin dividendos)|262=-7e4fbb11f556b23e|268=1|269=3|270=19540.968630345|271=906944039|290=3|811=-0.19|107=XSGO|10=119|
20160613-18:51:59.786: 8=FIX.4.4|9=178|35=W|34=4|49=TESTINDEX|52=20160613-18:52:03.394|56=FHINDEX|55=BANCA (Con dividendos)|262=-7e4fbb11f556b23e|268=1|269=3|270=6876.368923418|271=3598901001|290=4|811=-0.38|107=XSGO|10=015|
20160613-18:51:59.786: 8=FIX.4.4|9=178|35=W|34=5|49=TESTINDEX|52=20160613-18:52:03.394|56=FHINDEX|55=RETAIL (Sin dividendos)|262=-7e4fbb11f556b23e|268=1|269=3|270=3972.400769562|271=2406142451|290=5|811=0.72|107=XSGO|10=070|
20160613-18:51:59.786: 8=FIX.4.4|9=179|35=W|34=6|49=TESTINDEX|52=20160613-18:52:03.394|56=FHINDEX|55=CONSUMO (Con dividendos)|262=-7e4fbb11f556b23e|268=1|269=3|270=5303.175765176|271=813048275|290=6|811=-1.19|107=XSGO|10=166|
20160613-18:51:59.786: 8=FIX.4.4|9=184|35=W|34=7|49=TESTINDEX|52=20160613-18:52:03.395|56=FHINDEX|55=CONST.&INMOB. (Con dividendos)|262=-7e4fbb11f556b23e|268=1|269=3|270=4044.681722174|271=44683469|290=7|811=-0.19|107=XSGO|10=206|
20160613-18:51:59.786: 8=FIX.4.4|9=184|35=W|34=8|49=TESTINDEX|52=20160613-18:52:03.395|56=FHINDEX|55=COMMODITIES (Sin dividendos)|262=-7e4fbb11f556b23e|268=1|269=3|270=2414.177988609|271=2785187641|290=8|811=-0.96|107=XSGO|10=019|
20160613-18:51:59.787: 8=FIX.4.4|9=181|35=W|34=9|49=TESTINDEX|52=20160613-18:52:03.395|56=FHINDEX|55=INTER-10 (Sin dividendos)|262=-7e4fbb11f556b23e|268=1|269=3|270=3591.989777375|271=10016233610|290=9|811=-0.3|107=XSGO|10=205|
20160613-18:51:59.787: 8=FIX.4.4|9=181|35=W|34=10|49=TESTINDEX|52=20160613-18:52:03.395|56=FHINDEX|55=IGPA (Con dividendos)|262=-7e4fbb11f556b23e|268=1|269=3|270=19490.179981638|271=16474556963|290=10|811=-0.42|107=XSGO|10=163|
20160613-18:51:59.787: 8=FIX.4.4|9=184|35=W|34=11|49=TESTINDEX|52=20160613-18:52:03.395|56=FHINDEX|55=INDUSTRIAL (Con dividendos)|262=-7e4fbb11f556b23e|268=1|269=3|270=1753.664838725|271=616671580|290=11|811=-0.86|107=XSGO|10=228|
20160613-18:51:59.787: 8=FIX.4.4|9=180|35=W|34=12|49=TESTINDEX|52=20160613-18:52:03.395|56=FHINDEX|55=IPSA (Sin dividendos)|262=-7e4fbb11f556b23e|268=1|269=3|270=3069.225108434|271=16075201018|290=12|811=-0.42|107=XSGO|10=087|
20160613-18:51:59.787: 8=FIX.4.4|9=186|35=W|34=13|49=TESTINDEX|52=20160613-18:52:03.396|56=FHINDEX|55=CONST.&INMOB. (Sin dividendos)|262=-7e4fbb11f556b23e|268=1|269=3|270=2749.473288983|271=44683469|290=13|811=-0.19|107=XSGO|10=077|
20160613-18:51:59.787: 8=FIX.4.4|9=180|35=W|34=14|49=TESTINDEX|52=20160613-18:52:03.396|56=FHINDEX|55=RETAIL (Con dividendos)|262=-7e4fbb11f556b23e|268=1|269=3|270=4674.514781851|271=2406142451|290=14|811=0.72|107=XSGO|10=152|
20160613-18:51:59.787: 8=FIX.4.4|9=181|35=W|34=15|49=TESTINDEX|52=20160613-18:52:03.396|56=FHINDEX|55=IGPA (Sin dividendos)|262=-7e4fbb11f556b23e|268=1|269=3|270=14848.801665801|271=16474556963|290=15|811=-0.42|107=XSGO|10=169|
20160613-18:51:59.788: 8=FIX.4.4|9=183|35=W|34=16|49=TESTINDEX|52=20160613-18:52:03.396|56=FHINDEX|55=UTILITIES (Con dividendos)|262=-7e4fbb11f556b23e|268=1|269=3|270=4891.41008761|271=4440255964|290=16|811=-0.63|107=XSGO|10=153|
20160613-18:51:59.788: 8=FIX.4.4|9=183|35=W|34=17|49=TESTINDEX|52=20160613-18:52:03.396|56=FHINDEX|55=INTER-10 (Con dividendos)|262=-7e4fbb11f556b23e|268=1|269=3|270=4748.201318203|271=10016233610|290=17|811=-0.3|107=XSGO|10=255|
20160613-18:51:59.788: 8=FIX.4.4|9=186|35=W|34=18|49=TESTINDEX|52=20160613-18:52:03.396|56=FHINDEX|55=COMMODITIES (Con dividendos)|262=-7e4fbb11f556b23e|268=1|269=3|270=2965.345543356|271=2785187641|290=18|811=-0.96|107=XSGO|10=104|
20160613-18:51:59.788: 8=FIX.4.4|9=180|35=W|34=19|49=TESTINDEX|52=20160613-18:52:03.397|56=FHINDEX|55=BANCA (Sin dividendos)|262=-7e4fbb11f556b23e|268=1|269=3|270=4245.843936295|271=3598901001|290=19|811=-0.38|107=XSGO|10=122|
20160613-18:51:59.788: 8=FIX.4.4|9=180|35=W|34=20|49=TESTINDEX|52=20160613-18:52:03.397|56=FHINDEX|55=IPSA (Con dividendos)|262=-7e4fbb11f556b23e|268=1|269=3|270=3937.753732368|271=16075201018|290=20|811=-0.42|107=XSGO|10=096|
20160613-18:51:59.788: 8=FIX.4.4|9=187|35=W|34=21|49=TESTINDEX|52=20160613-18:52:03.397|56=FHINDEX|55=IGPA LARGE (Con dividendos)|262=-7e4fbb11f556b23e|268=1|269=3|270=17384.362901019|271=11463006257|290=21|811=-0.37|107=XSGO|10=020|
20160613-18:51:59.788: 8=FIX.4.4|9=187|35=W|34=22|49=TESTINDEX|52=20160613-18:52:03.397|56=FHINDEX|55=IGPA LARGE (Sin dividendos)|262=-7e4fbb11f556b23e|268=1|269=3|270=13575.106346711|271=11463006257|290=22|811=-0.37|107=XSGO|10=028|
20160613-18:51:59.789: 8=FIX.4.4|9=184|35=W|34=23|49=TESTINDEX|52=20160613-18:52:03.397|56=FHINDEX|55=INDUSTRIAL (Sin dividendos)|262=-7e4fbb11f556b23e|268=1|269=3|270=1416.359242863|271=616671580|290=23|811=-0.86|107=XSGO|10=235|
20160613-18:51:59.789: 8=FIX.4.4|9=181|35=W|34=24|49=TESTINDEX|52=20160613-18:52:03.397|56=FHINDEX|55=CONSUMO (Sin dividendos)|262=-7e4fbb11f556b23e|268=1|269=3|270=3898.931635262|271=813048275|290=24|811=-1.19|107=XSGO|10=021|
20160613-18:51:59.789: 8=FIX.4.4|9=184|35=W|34=25|49=TESTINDEX|52=20160613-18:52:03.398|56=FHINDEX|55=IGPA MID (Con dividendos)|262=-7e4fbb11f556b23e|268=1|269=3|270=18986.452400041|271=3807633150|290=25|811=-0.67|107=XSGO|10=091|
20160613-18:51:59.789: 8=FIX.4.4|9=184|35=W|34=26|49=TESTINDEX|52=20160613-18:52:03.398|56=FHINDEX|55=IGPA SMALL (Con dividendos)|262=-7e4fbb11f556b23e|268=1|269=3|270=27273.14046906|271=906944039|290=26|811=-0.19|107=XSGO|10=160|
20160613-18:51:59.789: 8=FIX.4.4|9=184|35=W|34=27|49=TESTINDEX|52=20160613-18:52:03.398|56=FHINDEX|55=UTILITIES (Sin dividendos)|262=-7e4fbb11f556b23e|268=1|269=3|270=3605.259251198|271=4440255964|290=27|811=-0.63|107=XSGO|10=225|
20160613-18:52:02.131: 8=FIX.4.4|9=183|35=X|34=28|49=TESTINDEX|52=20160613-18:52:05.741|56=FHINDEX|262=-7e4fbb11f556b23e|268=1|279=1|269=3|55=IGPA LARGE (Sin dividendos)|270=13573.467634311|271=11471309674|290=1|811=-0.38|10=238|
20160613-18:52:02.131: 8=FIX.4.4|9=176|35=X|34=29|49=TESTINDEX|52=20160613-18:52:05.741|56=FHINDEX|262=-7e4fbb11f556b23e|268=1|279=1|269=3|55=RETAIL (Sin dividendos)|270=3970.379079481|271=2414445868|290=1|811=0.67|10=139|
20160613-18:52:02.132: 8=FIX.4.4|9=183|35=X|34=30|49=TESTINDEX|52=20160613-18:52:05.743|56=FHINDEX|262=-7e4fbb11f556b23e|268=1|279=1|269=3|55=IGPA LARGE (Con dividendos)|270=17382.264356056|271=11471309674|290=1|811=-0.38|10=227|
20160613-18:52:02.141: 8=FIX.4.4|9=180|35=X|34=31|49=TESTINDEX|52=20160613-18:52:05.746|56=FHINDEX|262=-7e4fbb11f556b23e|268=1|279=1|269=3|55=INDUSTRIAL (Sin dividendos)|270=1416.359242863|271=617042217|290=1|811=-0.86|10=163|
20160613-18:52:02.141: 8=FIX.4.4|9=180|35=X|34=32|49=TESTINDEX|52=20160613-18:52:05.748|56=FHINDEX|262=-7e4fbb11f556b23e|268=1|279=1|269=3|55=INTER-10 (Sin dividendos)|270=3591.374452586|271=10024907664|290=1|811=-0.32|10=031|
20160613-18:52:02.141: 8=FIX.4.4|9=176|35=X|34=33|49=TESTINDEX|52=20160613-18:52:05.751|56=FHINDEX|262=-7e4fbb11f556b23e|268=1|279=1|269=3|55=IPSA (Con dividendos)|270=3937.445843934|271=16083875072|290=1|811=-0.43|10=064|
20160613-18:52:02.142: 8=FIX.4.4|9=176|35=X|34=34|49=TESTINDEX|52=20160613-18:52:05.753|56=FHINDEX|262=-7e4fbb11f556b23e|268=1|279=1|269=3|55=IGPA (Sin dividendos)|270=14847.79248364|271=16483231017|290=1|811=-0.43|10=055|
20160613-18:52:02.148: 8=FIX.4.4|9=180|35=X|34=35|49=TESTINDEX|52=20160613-18:52:05.756|56=FHINDEX|262=-7e4fbb11f556b23e|268=1|279=1|269=3|55=IGPA MID (Con dividendos)|270=18986.452400041|271=3808003787|290=1|811=-0.67|10=037|
20160613-18:52:02.148: 8=FIX.4.4|9=175|35=X|34=36|49=TESTINDEX|52=20160613-18:52:05.759|56=FHINDEX|262=-7e4fbb11f556b23e|268=1|279=1|269=3|55=RETAIL (Con dividendos)|270=4672.13576203|271=2414445868|290=1|811=0.67|10=066|
20160613-18:52:02.153: 8=FIX.4.4|9=180|35=X|34=37|49=TESTINDEX|52=20160613-18:52:05.761|56=FHINDEX|262=-7e4fbb11f556b23e|268=1|279=1|269=3|55=INDUSTRIAL (Con dividendos)|270=1753.664838725|271=617042217|290=1|811=-0.86|10=167|
20160613-18:52:02.153: 8=FIX.4.4|9=180|35=X|34=38|49=TESTINDEX|52=20160613-18:52:05.764|56=FHINDEX|262=-7e4fbb11f556b23e|268=1|279=1|269=3|55=INTER-10 (Con dividendos)|270=4747.387928924|271=10024907664|290=1|811=-0.32|10=037|
20160613-18:52:02.156: 8=FIX.4.4|9=176|35=X|34=39|49=TESTINDEX|52=20160613-18:52:05.767|56=FHINDEX|262=-7e4fbb11f556b23e|268=1|279=1|269=3|55=IPSA (Sin dividendos)|270=3068.985129254|271=16083875072|290=1|811=-0.43|10=083|
20160613-18:52:02.158: 8=FIX.4.4|9=177|35=X|34=40|49=TESTINDEX|52=20160613-18:52:05.769|56=FHINDEX|262=-7e4fbb11f556b23e|268=1|279=1|269=3|55=IGPA (Con dividendos)|270=19488.855353401|271=16483231017|290=1|811=-0.43|10=095|
20160613-18:52:02.161: 8=FIX.4.4|9=180|35=X|34=41|49=TESTINDEX|52=20160613-18:52:05.772|56=FHINDEX|262=-7e4fbb11f556b23e|268=1|279=1|269=3|55=IGPA MID (Sin dividendos)|270=13556.698162731|271=3808003787|290=1|811=-0.67|10=053|
20160613-18:52:26.170: 8=FIX.4.4|9=77|35=A|34=1|49=FHINDEX|52=20160613-18:52:26.170|56=TESTINDEX|98=0|108=60|141=Y|10=245|
20160613-18:52:26.195: 8=FIX.4.4|9=77|35=A|34=1|49=TESTINDEX|52=20160613-18:52:29.799|56=FHINDEX|98=0|108=60|141=Y|10=009|
20160613-18:52:26.272: 8=FIX.4.4|9=135|35=V|34=2|49=FHINDEX|50=1|52=20160613-18:52:26.272|56=TESTINDEX|262=32eaad63c8bb426e|263=1|264=1|146=1|55=INDEXES|207=XSGO|267=1|269=3|10=100|
20160613-18:52:26.274: 8=FIX.4.4|9=181|35=W|34=2|49=TESTINDEX|52=20160613-18:52:29.886|56=FHINDEX|55=IGPA MID (Sin dividendos)|262=32eaad63c8bb426e|268=1|269=3|270=13556.698162731|271=3808003787|290=2|811=-0.67|107=XSGO|10=019|
20160613-18:52:26.277: 8=FIX.4.4|9=182|35=W|34=3|49=TESTINDEX|52=20160613-18:52:29.887|56=FHINDEX|55=IGPA SMALL (Sin dividendos)|262=32eaad63c8bb426e|268=1|269=3|270=19540.968630345|271=906944039|290=3|811=-0.19|107=XSGO|10=131|
20160613-18:52:26.277: 8=FIX.4.4|9=177|35=W|34=4|49=TESTINDEX|52=20160613-18:52:29.887|56=FHINDEX|55=BANCA (Con dividendos)|262=32eaad63c8bb426e|268=1|269=3|270=6876.368923418|271=3598901001|290=4|811=-0.38|107=XSGO|10=027|
20160613-18:52:26.278: 8=FIX.4.4|9=177|35=W|34=5|49=TESTINDEX|52=20160613-18:52:29.888|56=FHINDEX|55=RETAIL (Sin dividendos)|262=32eaad63c8bb426e|268=1|269=3|270=3970.379079481|271=2414445868|290=5|811=0.67|107=XSGO|10=111|
20160613-18:52:26.278: 8=FIX.4.4|9=178|35=W|34=6|49=TESTINDEX|52=20160613-18:52:29.888|56=FHINDEX|55=CONSUMO (Con dividendos)|262=32eaad63c8bb426e|268=1|269=3|270=5303.175765176|271=813048275|290=6|811=-1.19|107=XSGO|10=179|
20160613-18:52:26.278: 8=FIX.4.4|9=183|35=W|34=7|49=TESTINDEX|52=20160613-18:52:29.888|56=FHINDEX|55=CONST.&INMOB. (Con dividendos)|262=32eaad63c8bb426e|268=1|269=3|270=4044.681722174|271=44683469|290=7|811=-0.19|107=XSGO|10=218|
20160613-18:52:26.278: 8=FIX.4.4|9=183|35=W|34=8|49=TESTINDEX|52=20160613-18:52:29.888|56=FHINDEX|55=COMMODITIES (Sin dividendos)|262=32eaad63c8bb426e|268=1|269=3|270=2414.177988609|271=2785187641|290=8|811=-0.96|107=XSGO|10=031|
20160613-18:52:26.278: 8=FIX.4.4|9=181|35=W|34=9|49=TESTINDEX|52=20160613-18:52:29.889|56=FHINDEX|55=INTER-10 (Sin dividendos)|262=32eaad63c8bb426e|268=1|269=3|270=3591.374452586|271=10024907664|290=9|811=-0.32|107=XSGO|10=011|
20160613-18:52:26.278: 8=FIX.4.4|9=180|35=W|34=10|49=TESTINDEX|52=20160613-18:52:29.889|56=FHINDEX|55=IGPA (Con dividendos)|262=32eaad63c8bb426e|268=1|269=3|270=19488.855353401|271=16483231017|290=10|811=-0.43|107=XSGO|10=146|
20160613-18:52:26.278: 8=FIX.4.4|9=183|35=W|34=11|49=TESTINDEX|52=20160613-18:52:29.889|56=FHINDEX|55=INDUSTRIAL (Con dividendos)|262=32eaad63c8bb426e|268=1|269=3|270=1753.664838725|271=617042217|290=11|811=-0.86|107=XSGO|10=231|
20160613-18:52:26.278: 8=FIX.4.4|9=179|35=W|34=12|49=TESTINDEX|52=20160613-18:52:29.889|56=FHINDEX|55=IPSA (Sin dividendos)|262=32eaad63c8bb426e|268=1|269=3|270=3068.985129254|271=16083875072|290=12|811=-0.43|107=XSGO|10=141|
20160613-18:52:26.278: 8=FIX.4.4|9=185|35=W|34=13|49=TESTINDEX|52=20160613-18:52:29.890|56=FHINDEX|55=CONST.&INMOB. (Sin dividendos)|262=32eaad63c8bb426e|268=1|269=3|270=2749.473288983|271=44683469|290=13|811=-0.19|107=XSGO|10=081|
20160613-18:52:26.279: 8=FIX.4.4|9=178|35=W|34=14|49=TESTINDEX|52=20160613-18:52:29.890|56=FHINDEX|55=RETAIL (Con dividendos)|262=32eaad63c8bb426e|268=1|269=3|270=4672.13576203|271=2414445868|290=14|811=0.67|107=XSGO|10=122|
20160613-18:52:26.279: 8=FIX.4.4|9=179|35=W|34=15|49=TESTINDEX|52=20160613-18:52:29.890|56=FHINDEX|55=IGPA (Sin dividendos)|262=32eaad63c8bb426e|268=1|269=3|270=14847.79248364|271=16483231017|290=15|811=-0.43|107=XSGO|10=121|
20160613-18:52:26.279: 8=FIX.4.4|9=182|35=W|34=16|49=TESTINDEX|52=20160613-18:52:29.890|56=FHINDEX|55=UTILITIES (Con dividendos)|262=32eaad63c8bb426e|268=1|269=3|270=4891.41008761|271=4440255964|290=16|811=-0.63|107=XSGO|10=157|
20160613-18:52:26.279: 8=FIX.4.4|9=183|35=W|34=17|49=TESTINDEX|52=20160613-18:52:29.891|56=FHINDEX|55=INTER-10 (Con dividendos)|262=32eaad63c8bb426e|268=1|269=3|270=4747.387928924|271=10024907664|290=17|811=-0.32|107=XSGO|10=102|
20160613-18:52:26.279: 8=FIX.4.4|9=185|35=W|34=18|49=TESTINDEX|52=20160613-18:52:29.891|56=FHINDEX|55=COMMODITIES (Con dividendos)|262=32eaad63c8bb426e|268=1|269=3|270=2965.345543356|271=2785187641|290=18|811=-0.96|107=XSGO|10=109|
20160613-18:52:26.280: 8=FIX.4.4|9=179|35=W|34=19|49=TESTINDEX|52=20160613-18:52:29.891|56=FHINDEX|55=BANCA (Sin dividendos)|262=32eaad63c8bb426e|268=1|269=3|270=4245.843936295|271=3598901001|290=19|811=-0.38|107=XSGO|10=135|
20160613-18:52:26.280: 8=FIX.4.4|9=179|35=W|34=20|49=TESTINDEX|52=20160613-18:52:29.891|56=FHINDEX|55=IPSA (Con dividendos)|262=32eaad63c8bb426e|268=1|269=3|270=3937.445843934|271=16083875072|290=20|811=-0.43|107=XSGO|10=126|
20160613-18:52:26.280: 8=FIX.4.4|9=186|35=W|34=21|49=TESTINDEX|52=20160613-18:52:29.892|56=FHINDEX|55=IGPA LARGE (Con dividendos)|262=32eaad63c8bb426e|268=1|269=3|270=17382.264356056|271=11471309674|290=21|811=-0.38|107=XSGO|10=038|
20160613-18:52:26.280: 8=FIX.4.4|9=186|35=W|34=22|49=TESTINDEX|52=20160613-18:52:29.892|56=FHINDEX|55=IGPA LARGE (Sin dividendos)|262=32eaad63c8bb426e|268=1|269=3|270=13573.467634311|271=11471309674|290=22|811=-0.38|107=XSGO|10=046|
20160613-18:52:26.280: 8=FIX.4.4|9=183|35=W|34=23|49=TESTINDEX|52=20160613-18:52:29.892|56=FHINDEX|55=INDUSTRIAL (Sin dividendos)|262=32eaad63c8bb426e|268=1|269=3|270=1416.359242863|271=617042217|290=23|811=-0.86|107=XSGO|10=230|
20160613-18:52:26.280: 8=FIX.4.4|9=180|35=W|34=24|49=TESTINDEX|52=20160613-18:52:29.892|56=FHINDEX|55=CONSUMO (Sin dividendos)|262=32eaad63c8bb426e|268=1|269=3|270=3898.931635262|271=813048275|290=24|811=-1.19|107=XSGO|10=026|
20160613-18:52:26.280: 8=FIX.4.4|9=183|35=W|34=25|49=TESTINDEX|52=20160613-18:52:29.892|56=FHINDEX|55=IGPA MID (Con dividendos)|262=32eaad63c8bb426e|268=1|269=3|270=18986.452400041|271=3808003787|290=25|811=-0.67|107=XSGO|10=103|
20160613-18:52:26.280: 8=FIX.4.4|9=183|35=W|34=26|49=TESTINDEX|52=20160613-18:52:29.893|56=FHINDEX|55=IGPA SMALL (Con dividendos)|262=32eaad63c8bb426e|268=1|269=3|270=27273.14046906|271=906944039|290=26|811=-0.19|107=XSGO|10=165|
20160613-18:52:26.281: 8=FIX.4.4|9=183|35=W|34=27|49=TESTINDEX|52=20160613-18:52:29.893|56=FHINDEX|55=UTILITIES (Sin dividendos)|262=32eaad63c8bb426e|268=1|269=3|270=3605.259251198|271=4440255964|290=27|811=-0.63|107=XSGO|10=230|
20160613-18:53:02.018: 8=FIX.4.4|9=182|35=X|34=28|49=TESTINDEX|52=20160613-18:53:05.631|56=FHINDEX|262=32eaad63c8bb426e|268=1|279=1|269=3|55=IGPA LARGE (Sin dividendos)|270=13573.467634311|271=11472364862|290=1|811=-0.38|10=235|
20160613-18:53:02.019: 8=FIX.4.4|9=175|35=X|34=29|49=TESTINDEX|52=20160613-18:53:05.632|56=FHINDEX|262=32eaad63c8bb426e|268=1|279=1|269=3|55=RETAIL (Sin dividendos)|270=3970.379079481|271=2415501056|290=1|811=0.67|10=119|
20160613-18:53:02.021: 8=FIX.4.4|9=182|35=X|34=30|49=TESTINDEX|52=20160613-18:53:05.635|56=FHINDEX|262=32eaad63c8bb426e|268=1|279=1|269=3|55=IGPA LARGE (Con dividendos)|270=17382.264356056|271=11472364862|290=1|811=-0.38|10=226|
20160613-18:53:02.024: 8=FIX.4.4|9=179|35=X|34=31|49=TESTINDEX|52=20160613-18:53:05.638|56=FHINDEX|262=32eaad63c8bb426e|268=1|279=1|269=3|55=INTER-10 (Sin dividendos)|270=3591.374452586|271=10030466657|290=1|811=-0.32|10=034|
20160613-18:53:02.028: 8=FIX.4.4|9=175|35=X|34=32|49=TESTINDEX|52=20160613-18:53:05.642|56=FHINDEX|262=32eaad63c8bb426e|268=1|279=1|269=3|55=IPSA (Con dividendos)|270=3937.445843934|271=16089434065|290=1|811=-0.43|10=059|
20160613-18:53:02.031: 8=FIX.4.4|9=175|35=X|34=33|49=TESTINDEX|52=20160613-18:53:05.646|56=FHINDEX|262=32eaad63c8bb426e|268=1|279=1|269=3|55=BANCA (Sin dividendos)|270=4245.843936295|271=3603404806|290=1|811=-0.38|10=056|
20160613-18:53:02.036: 8=FIX.4.4|9=175|35=X|34=34|49=TESTINDEX|52=20160613-18:53:05.650|56=FHINDEX|262=32eaad63c8bb426e|268=1|279=1|269=3|55=IGPA (Sin dividendos)|270=14847.79248364|271=16488790010|290=1|811=-0.43|10=057|
20160613-18:53:02.040: 8=FIX.4.4|9=175|35=X|34=35|49=TESTINDEX|52=20160613-18:53:05.654|56=FHINDEX|262=32eaad63c8bb426e|268=1|279=1|269=3|55=BANCA (Con dividendos)|270=6876.368923418|271=3603404806|290=1|811=-0.38|10=054|
20160613-18:53:02.045: 8=FIX.4.4|9=179|35=X|34=36|49=TESTINDEX|52=20160613-18:53:05.659|56=FHINDEX|262=32eaad63c8bb426e|268=1|279=1|269=3|55=IGPA MID (Con dividendos)|270=18986.452400041|271=3812507592|290=1|811=-0.67|10=045|
20160613-18:53:02.049: 8=FIX.4.4|9=174|35=X|34=37|49=TESTINDEX|52=20160613-18:53:05.663|56=FHINDEX|262=32eaad63c8bb426e|268=1|279=1|269=3|55=RETAIL (Con dividendos)|270=4672.13576203|271=2415501056|290=1|811=0.67|10=042|
20160613-18:53:02.052: 8=FIX.4.4|9=179|35=X|34=38|49=TESTINDEX|52=20160613-18:53:05.667|56=FHINDEX|262=32eaad63c8bb426e|268=1|279=1|269=3|55=INTER-10 (Con dividendos)|270=4747.387928924|271=10030466657|290=1|811=-0.32|10=045|
20160613-18:53:02.056: 8=FIX.4.4|9=175|35=X|34=39|49=TESTINDEX|52=20160613-18:53:05.670|56=FHINDEX|262=32eaad63c8bb426e|268=1|279=1|269=3|55=IPSA (Sin dividendos)|270=3068.985129254|271=16089434065|290=1|811=-0.43|10=073|
20160613-18:53:02.059: 8=FIX.4.4|9=176|35=X|34=40|49=TESTINDEX|52=20160613-18:53:05.674|56=FHINDEX|262=32eaad63c8bb426e|268=1|279=1|269=3|55=IGPA (Con dividendos)|270=19488.855353401|271=16488790010|290=1|811=-0.43|10=096|
20160613-18:53:02.063: 8=FIX.4.4|9=179|35=X|34=41|49=TESTINDEX|52=20160613-18:53:05.677|56=FHINDEX|262=32eaad63c8bb426e|268=1|279=1|269=3|55=IGPA MID (Sin dividendos)|270=13556.698162731|271=3812507592|290=1|811=-0.67|10=062|
20160613-18:53:27.133: 8=FIX.4.4|9=59|35=0|34=3|49=FHINDEX|52=20160613-18:53:27.133|56=TESTINDEX|10=158|
20160613-18:53:42.087: 8=FIX.4.4|9=179|35=X|34=42|49=TESTINDEX|52=20160613-18:53:45.702|56=FHINDEX|262=32eaad63c8bb426e|268=1|279=1|269=3|55=INTER-10 (Sin dividendos)|270=3591.409412845|271=10047196117|290=1|811=-0.32|10=024|
20160613-18:53:42.087: 8=FIX.4.4|9=175|35=X|34=43|49=TESTINDEX|52=20160613-18:53:45.704|56=FHINDEX|262=32eaad63c8bb426e|268=1|279=1|269=3|55=IPSA (Con dividendos)|270=3937.463336906|271=16106163525|290=1|811=-0.43|10=050|
20160613-18:53:42.089: 8=FIX.4.4|9=175|35=X|34=44|49=TESTINDEX|52=20160613-18:53:45.705|56=FHINDEX|262=32eaad63c8bb426e|268=1|279=1|269=3|55=BANCA (Sin dividendos)|270=4245.960731971|271=3620134266|290=1|811=-0.38|10=051|
20160613-18:53:42.092: 8=FIX.4.4|9=176|35=X|34=45|49=TESTINDEX|52=20160613-18:53:45.707|56=FHINDEX|262=32eaad63c8bb426e|268=1|279=1|269=3|55=IGPA (Sin dividendos)|270=14847.849821276|271=16505519470|290=1|811=-0.43|10=118|
20160613-18:53:42.093: 8=FIX.4.4|9=175|35=X|34=46|49=TESTINDEX|52=20160613-18:53:45.709|56=FHINDEX|262=32eaad63c8bb426e|268=1|279=1|269=3|55=BANCA (Con dividendos)|270=6876.558080195|271=3620134266|290=1|811=-0.38|10=057|
20160613-18:53:42.096: 8=FIX.4.4|9=179|35=X|34=47|49=TESTINDEX|52=20160613-18:53:45.712|56=FHINDEX|262=32eaad63c8bb426e|268=1|279=1|269=3|55=IGPA MID (Con dividendos)|270=18986.809965861|271=3829237052|290=1|811=-0.66|10=071|
20160613-18:53:42.099: 8=FIX.4.4|9=179|35=X|34=48|49=TESTINDEX|52=20160613-18:53:45.714|56=FHINDEX|262=32eaad63c8bb426e|268=1|279=1|269=3|55=INTER-10 (Con dividendos)|270=4747.434142404|271=10047196117|290=1|811=-0.32|10=016|
20160613-18:53:42.102: 8=FIX.4.4|9=175|35=X|34=49|49=TESTINDEX|52=20160613-18:53:45.717|56=FHINDEX|262=32eaad63c8bb426e|268=1|279=1|269=3|55=IPSA (Sin dividendos)|270=3068.998763897|271=16106163525|290=1|811=-0.43|10=091|
20160613-18:53:42.105: 8=FIX.4.4|9=176|35=X|34=50|49=TESTINDEX|52=20160613-18:53:45.721|56=FHINDEX|262=32eaad63c8bb426e|268=1|279=1|269=3|55=IGPA (Con dividendos)|270=19488.930613404|271=16505519470|290=1|811=-0.43|10=089|
20160613-18:53:42.108: 8=FIX.4.4|9=179|35=X|34=51|49=TESTINDEX|52=20160613-18:53:45.724|56=FHINDEX|262=32eaad63c8bb426e|268=1|279=1|269=3|55=IGPA MID (Sin dividendos)|270=13556.953471716|271=3829237052|290=1|811=-0.66|10=058|
20160613-18:53:52.088: 8=FIX.4.4|9=175|35=X|34=52|49=TESTINDEX|52=20160613-18:53:55.704|56=FHINDEX|262=32eaad63c8bb426e|268=1|279=1|269=3|55=IPSA (Con dividendos)|270=3937.463336906|271=16106234171|290=1|811=-0.43|10=047|
20160613-18:53:52.089: 8=FIX.4.4|9=179|35=X|34=53|49=TESTINDEX|52=20160613-18:53:55.705|56=FHINDEX|262=32eaad63c8bb426e|268=1|279=1|269=3|55=IGPA SMALL (Con dividendos)|270=27273.14046906|271=907014685|290=1|811=-0.19|10=098|
20160613-18:53:52.091: 8=FIX.4.4|9=181|35=X|34=54|49=TESTINDEX|52=20160613-18:53:55.707|56=FHINDEX|262=32eaad63c8bb426e|268=1|279=1|269=3|55=COMMODITIES (Sin dividendos)|270=2414.177988609|271=2785258287|290=1|811=-0.96|10=061|
20160613-18:53:52.093: 8=FIX.4.4|9=176|35=X|34=55|49=TESTINDEX|52=20160613-18:53:55.710|56=FHINDEX|262=32eaad63c8bb426e|268=1|279=1|269=3|55=IGPA (Sin dividendos)|270=14847.849821276|271=16505590116|290=1|811=-0.43|10=110|
20160613-18:53:52.096: 8=FIX.4.4|9=181|35=X|34=56|49=TESTINDEX|52=20160613-18:53:55.712|56=FHINDEX|262=32eaad63c8bb426e|268=1|279=1|269=3|55=COMMODITIES (Con dividendos)|270=2965.345543356|271=2785258287|290=1|811=-0.96|10=043|
20160613-18:53:52.098: 8=FIX.4.4|9=175|35=X|34=57|49=TESTINDEX|52=20160613-18:53:55.715|56=FHINDEX|262=32eaad63c8bb426e|268=1|279=1|269=3|55=IPSA (Sin dividendos)|270=3068.998763897|271=16106234171|290=1|811=-0.43|10=085|
20160613-18:53:52.101: 8=FIX.4.4|9=180|35=X|34=58|49=TESTINDEX|52=20160613-18:53:55.718|56=FHINDEX|262=32eaad63c8bb426e|268=1|279=1|269=3|55=IGPA SMALL (Sin dividendos)|270=19540.968630345|271=907014685|290=1|811=-0.19|10=169|
20160613-18:53:52.105: 8=FIX.4.4|9=176|35=X|34=59|49=TESTINDEX|52=20160613-18:53:55.721|56=FHINDEX|262=32eaad63c8bb426e|268=1|279=1|269=3|55=IGPA (Con dividendos)|270=19488.930613404|271=16505590116|290=1|811=-0.43|10=095|
20160613-18:54:02.110: 8=FIX.4.4|9=181|35=X|34=60|49=TESTINDEX|52=20160613-18:54:05.726|56=FHINDEX|262=32eaad63c8bb426e|268=1|279=1|269=3|55=IGPA LARGE (Sin dividendos)|270=13574.01241082|271=11474122612|290=1|811=-0.38|10=159|
20160613-18:54:02.110: 8=FIX.4.4|9=182|35=X|34=61|49=TESTINDEX|52=20160613-18:54:05.727|56=FHINDEX|262=32eaad63c8bb426e|268=1|279=1|269=3|55=IGPA LARGE (Con dividendos)|270=17382.962000133|271=11474122612|290=1|811=-0.38|10=207|
20160613-18:54:02.112: 8=FIX.4.4|9=175|35=X|34=62|49=TESTINDEX|52=20160613-18:54:05.729|56=FHINDEX|262=32eaad63c8bb426e|268=1|279=1|269=3|55=IPSA (Con dividendos)|270=3937.565691892|271=16107991921|290=1|811=-0.43|10=076|
20160613-18:54:02.113: 8=FIX.4.4|9=181|35=X|34=63|49=TESTINDEX|52=20160613-18:54:05.731|56=FHINDEX|262=32eaad63c8bb426e|268=1|279=1|269=3|55=COMMODITIES (Sin dividendos)|270=2414.575115839|271=2787016037|290=1|811=-0.95|10=029|
20160613-18:54:02.116: 8=FIX.4.4|9=176|35=X|34=64|49=TESTINDEX|52=20160613-18:54:05.733|56=FHINDEX|262=32eaad63c8bb426e|268=1|279=1|269=3|55=IGPA (Sin dividendos)|270=14848.185315617|271=16507347866|290=1|811=-0.43|10=116|
20160613-18:54:02.119: 8=FIX.4.4|9=181|35=X|34=65|49=TESTINDEX|52=20160613-18:54:05.735|56=FHINDEX|262=32eaad63c8bb426e|268=1|279=1|269=3|55=COMMODITIES (Con dividendos)|270=2965.833336497|271=2787016037|290=1|811=-0.95|10=038|
20160613-18:54:02.121: 8=FIX.4.4|9=175|35=X|34=66|49=TESTINDEX|52=20160613-18:54:05.738|56=FHINDEX|262=32eaad63c8bb426e|268=1|279=1|269=3|55=IPSA (Sin dividendos)|270=3069.078543009|271=16107991921|290=1|811=-0.43|10=071|
20160613-18:54:02.123: 8=FIX.4.4|9=176|35=X|34=67|49=TESTINDEX|52=20160613-18:54:05.740|56=FHINDEX|262=32eaad63c8bb426e|268=1|279=1|269=3|55=IGPA (Con dividendos)|270=19489.370975207|271=16507347866|290=1|811=-0.43|10=116|
20160613-18:54:12.191: 8=FIX.4.4|9=179|35=X|34=68|49=TESTINDEX|52=20160613-18:54:15.807|56=FHINDEX|262=32eaad63c8bb426e|268=1|279=1|269=3|55=UTILITIES (Sin dividendos)|270=3605.249931488|271=4447204708|290=1|811=-0.63|10=174|
20160613-18:54:12.191: 8=FIX.4.4|9=174|35=X|34=69|49=TESTINDEX|52=20160613-18:54:15.808|56=FHINDEX|262=32eaad63c8bb426e|268=1|279=1|269=3|55=IPSA (Con dividendos)|270=3937.56282326|271=16114940665|290=1|811=-0.43|10=013|
20160613-18:54:12.192: 8=FIX.4.4|9=176|35=X|34=70|49=TESTINDEX|52=20160613-18:54:15.809|56=FHINDEX|262=32eaad63c8bb426e|268=1|279=1|269=3|55=IGPA (Sin dividendos)|270=14848.175912948|271=16514296610|290=1|811=-0.43|10=115|
20160613-18:54:12.194: 8=FIX.4.4|9=179|35=X|34=71|49=TESTINDEX|52=20160613-18:54:15.812|56=FHINDEX|262=32eaad63c8bb426e|268=1|279=1|269=3|55=IGPA MID (Con dividendos)|270=18986.751329455|271=3836185796|290=1|811=-0.67|10=072|
20160613-18:54:12.196: 8=FIX.4.4|9=179|35=X|34=72|49=TESTINDEX|52=20160613-18:54:15.814|56=FHINDEX|262=32eaad63c8bb426e|268=1|279=1|269=3|55=UTILITIES (Con dividendos)|270=4891.397443159|271=4447204708|290=1|811=-0.63|10=162|
20160613-18:54:12.199: 8=FIX.4.4|9=175|35=X|34=73|49=TESTINDEX|52=20160613-18:54:15.816|56=FHINDEX|262=32eaad63c8bb426e|268=1|279=1|269=3|55=IPSA (Sin dividendos)|270=3069.076307095|271=16114940665|290=1|811=-0.43|10=065|
20160613-18:54:12.202: 8=FIX.4.4|9=175|35=X|34=74|49=TESTINDEX|52=20160613-18:54:15.819|56=FHINDEX|262=32eaad63c8bb426e|268=1|279=1|269=3|55=IGPA (Con dividendos)|270=19489.35863349|271=16514296610|290=1|811=-0.43|10=062|
20160613-18:54:12.205: 8=FIX.4.4|9=179|35=X|34=75|49=TESTINDEX|52=20160613-18:54:15.822|56=FHINDEX|262=32eaad63c8bb426e|268=1|279=1|269=3|55=IGPA MID (Sin dividendos)|270=13556.911604176|271=3836185796|290=1|811=-0.67|10=069|
20160613-18:54:22.211: 8=FIX.4.4|9=181|35=X|34=76|49=TESTINDEX|52=20160613-18:54:25.829|56=FHINDEX|262=32eaad63c8bb426e|268=1|279=1|269=3|55=IGPA LARGE (Sin dividendos)|270=13574.70571222|271=11479790912|290=1|811=-0.37|10=198|
20160613-18:54:22.215: 8=FIX.4.4|9=173|35=X|34=77|49=TESTINDEX|52=20160613-18:54:25.832|56=FHINDEX|262=32eaad63c8bb426e|268=1|279=1|269=3|55=RETAIL (Sin dividendos)|270=3971.2344099|271=2417653856|290=1|811=0.69|10=033|
20160613-18:54:22.218: 8=FIX.4.4|9=182|35=X|34=78|49=TESTINDEX|52=20160613-18:54:25.836|56=FHINDEX|262=32eaad63c8bb426e|268=1|279=1|269=3|55=IGPA LARGE (Con dividendos)|270=17383.849846079|271=11479790912|290=1|811=-0.37|10=012|
20160613-18:54:22.223: 8=FIX.4.4|9=179|35=X|34=79|49=TESTINDEX|52=20160613-18:54:25.841|56=FHINDEX|262=32eaad63c8bb426e|268=1|279=1|269=3|55=INTER-10 (Sin dividendos)|270=3591.669742563|271=10049348917|290=1|811=-0.31|10=056|
20160613-18:54:22.228: 8=FIX.4.4|9=175|35=X|34=80|49=TESTINDEX|52=20160613-18:54:25.846|56=FHINDEX|262=32eaad63c8bb426e|268=1|279=1|269=3|55=IPSA (Con dividendos)|270=3937.693083751|271=16120608965|290=1|811=-0.42|10=066|
20160613-18:54:22.233: 8=FIX.4.4|9=181|35=X|34=81|49=TESTINDEX|52=20160613-18:54:25.851|56=FHINDEX|262=32eaad63c8bb426e|268=1|279=1|269=3|55=COMMODITIES (Sin dividendos)|270=2414.575115839|271=2790531537|290=1|811=-0.95|10=035|
20160613-18:54:22.237: 8=FIX.4.4|9=176|35=X|34=82|49=TESTINDEX|52=20160613-18:54:25.855|56=FHINDEX|262=32eaad63c8bb426e|268=1|279=1|269=3|55=IGPA (Sin dividendos)|270=14848.602874632|271=16519964910|290=1|811=-0.42|10=121|
20160613-18:54:22.243: 8=FIX.4.4|9=181|35=X|34=83|49=TESTINDEX|52=20160613-18:54:25.861|56=FHINDEX|262=32eaad63c8bb426e|268=1|279=1|269=3|55=COMMODITIES (Con dividendos)|270=2965.833336497|271=2790531537|290=1|811=-0.95|10=041|
20160613-18:54:22.251: 8=FIX.4.4|9=175|35=X|34=84|49=TESTINDEX|52=20160613-18:54:25.868|56=FHINDEX|262=32eaad63c8bb426e|268=1|279=1|269=3|55=RETAIL (Con dividendos)|270=4673.142270416|271=2417653856|290=1|811=0.69|10=124|
20160613-18:54:22.255: 8=FIX.4.4|9=179|35=X|34=85|49=TESTINDEX|52=20160613-18:54:25.873|56=FHINDEX|262=32eaad63c8bb426e|268=1|279=1|269=3|55=INTER-10 (Con dividendos)|270=4747.778268637|271=10049348917|290=1|811=-0.31|10=058|
20160613-18:54:22.259: 8=FIX.4.4|9=175|35=X|34=86|49=TESTINDEX|52=20160613-18:54:25.877|56=FHINDEX|262=32eaad63c8bb426e|268=1|279=1|269=3|55=IPSA (Sin dividendos)|270=3069.177836748|271=16120608965|290=1|811=-0.42|10=091|
20160613-18:54:22.262: 8=FIX.4.4|9=176|35=X|34=87|49=TESTINDEX|52=20160613-18:54:25.881|56=FHINDEX|262=32eaad63c8bb426e|268=1|279=1|269=3|55=IGPA (Con dividendos)|270=19489.919053129|271=16519964910|290=1|811=-0.42|10=122|
20160613-18:54:27.133: 8=FIX.4.4|9=59|35=0|34=4|49=FHINDEX|52=20160613-18:54:27.133|56=TESTINDEX|10=160|
20160613-18:54:32.446: 8=FIX.4.4|9=181|35=X|34=88|49=TESTINDEX|52=20160613-18:54:36.063|56=FHINDEX|262=32eaad63c8bb426e|268=1|279=1|269=3|55=IGPA LARGE (Sin dividendos)|270=13574.70571222|271=11482022552|290=1|811=-0.37|10=175|
20160613-18:54:32.446: 8=FIX.4.4|9=173|35=X|34=89|49=TESTINDEX|52=20160613-18:54:36.064|56=FHINDEX|262=32eaad63c8bb426e|268=1|279=1|269=3|55=RETAIL (Sin dividendos)|270=3971.2344099|271=2417960562|290=1|811=0.69|10=030|
20160613-18:54:32.447: 8=FIX.4.4|9=182|35=X|34=90|49=TESTINDEX|52=20160613-18:54:36.066|56=FHINDEX|262=32eaad63c8bb426e|268=1|279=1|269=3|55=IGPA LARGE (Con dividendos)|270=17383.849846079|271=11482022552|290=1|811=-0.37|10=241|
20160613-18:54:32.449: 8=FIX.4.4|9=175|35=X|34=91|49=TESTINDEX|52=20160613-18:54:36.068|56=FHINDEX|262=32eaad63c8bb426e|268=1|279=1|269=3|55=IPSA (Con dividendos)|270=3937.693083751|271=16123147311|290=1|811=-0.42|10=052|
20160613-18:54:32.451: 8=FIX.4.4|9=179|35=X|34=92|49=TESTINDEX|52=20160613-18:54:36.070|56=FHINDEX|262=32eaad63c8bb426e|268=1|279=1|269=3|55=IGPA SMALL (Con dividendos)|270=27273.14046906|271=907321391|290=1|811=-0.19|10=091|
20160613-18:54:32.457: 8=FIX.4.4|9=181|35=X|34=93|49=TESTINDEX|52=20160613-18:54:36.072|56=FHINDEX|262=32eaad63c8bb426e|268=1|279=1|269=3|55=COMMODITIES (Sin dividendos)|270=2414.575115839|271=2792763177|290=1|811=-0.95|10=044|
20160613-18:54:32.457: 8=FIX.4.4|9=176|35=X|34=94|49=TESTINDEX|52=20160613-18:54:36.075|56=FHINDEX|262=32eaad63c8bb426e|268=1|279=1|269=3|55=IGPA (Sin dividendos)|270=14848.602874632|271=16522503256|290=1|811=-0.42|10=106|
20160613-18:54:32.459: 8=FIX.4.4|9=181|35=X|34=95|49=TESTINDEX|52=20160613-18:54:36.077|56=FHINDEX|262=32eaad63c8bb426e|268=1|279=1|269=3|55=COMMODITIES (Con dividendos)|270=2965.833336497|271=2792763177|290=1|811=-0.95|10=054|
20160613-18:54:32.461: 8=FIX.4.4|9=175|35=X|34=96|49=TESTINDEX|52=20160613-18:54:36.079|56=FHINDEX|262=32eaad63c8bb426e|268=1|279=1|269=3|55=RETAIL (Con dividendos)|270=4673.142270416|271=2417960562|290=1|811=0.69|10=118|
20160613-18:54:32.464: 8=FIX.4.4|9=175|35=X|34=97|49=TESTINDEX|52=20160613-18:54:36.082|56=FHINDEX|262=32eaad63c8bb426e|268=1|279=1|269=3|55=IPSA (Sin dividendos)|270=3069.177836748|271=16123147311|290=1|811=-0.42|10=069|
20160613-18:54:32.467: 8=FIX.4.4|9=180|35=X|34=98|49=TESTINDEX|52=20160613-18:54:36.085|56=FHINDEX|262=32eaad63c8bb426e|268=1|279=1|269=3|55=IGPA SMALL (Sin dividendos)|270=19540.968630345|271=907321391|290=1|811=-0.19|10=165|
20160613-18:54:32.470: 8=FIX.4.4|9=176|35=X|34=99|49=TESTINDEX|52=20160613-18:54:36.088|56=FHINDEX|262=32eaad63c8bb426e|268=1|279=1|269=3|55=IGPA (Con dividendos)|270=19489.919053129|271=16522503256|290=1|811=-0.42|10=112|
20160613-18:54:42.206: 8=FIX.4.4|9=176|35=X|34=100|49=TESTINDEX|52=20160613-18:54:45.825|56=FHINDEX|262=32eaad63c8bb426e|268=1|279=1|269=3|55=IPSA (Con dividendos)|270=3937.451534519|271=16125131991|290=1|811=-0.43|10=098|
20160613-18:54:42.207: 8=FIX.4.4|9=177|35=X|34=101|49=TESTINDEX|52=20160613-18:54:45.826|56=FHINDEX|262=32eaad63c8bb426e|268=1|279=1|269=3|55=CONSUMO (Sin dividendos)|270=3895.234465788|271=815032955|290=1|811=-1.29|10=023|
20160613-18:54:42.208: 8=FIX.4.4|9=177|35=X|34=102|49=TESTINDEX|52=20160613-18:54:45.827|56=FHINDEX|262=32eaad63c8bb426e|268=1|279=1|269=3|55=IGPA (Sin dividendos)|270=14847.811135972|271=16524487936|290=1|811=-0.43|10=167|
20160613-18:54:42.211: 8=FIX.4.4|9=180|35=X|34=103|49=TESTINDEX|52=20160613-18:54:45.829|56=FHINDEX|262=32eaad63c8bb426e|268=1|279=1|269=3|55=IGPA MID (Con dividendos)|270=18981.813932311|271=3838170476|290=1|811=-0.69|10=097|
20160613-18:54:42.212: 8=FIX.4.4|9=176|35=X|34=104|49=TESTINDEX|52=20160613-18:54:45.831|56=FHINDEX|262=32eaad63c8bb426e|268=1|279=1|269=3|55=IPSA (Sin dividendos)|270=3068.989564698|271=16125131991|290=1|811=-0.43|10=131|
20160613-18:54:42.214: 8=FIX.4.4|9=177|35=X|34=105|49=TESTINDEX|52=20160613-18:54:45.833|56=FHINDEX|262=32eaad63c8bb426e|268=1|279=1|269=3|55=CONSUMO (Con dividendos)|270=5298.147018485|271=815032955|290=1|811=-1.29|10=005|
20160613-18:54:42.217: 8=FIX.4.4|9=177|35=X|34=106|49=TESTINDEX|52=20160613-18:54:45.836|56=FHINDEX|262=32eaad63c8bb426e|268=1|279=1|269=3|55=IGPA (Con dividendos)|270=19488.879836004|271=16524487936|290=1|811=-0.43|10=175|
20160613-18:54:42.220: 8=FIX.4.4|9=180|35=X|34=107|49=TESTINDEX|52=20160613-18:54:45.838|56=FHINDEX|262=32eaad63c8bb426e|268=1|279=1|269=3|55=IGPA MID (Sin dividendos)|270=13553.386206099|271=3838170476|290=1|811=-0.69|10=113|
20160613-19:17:42.987: 8=FIX.4.4|9=77|35=A|34=1|49=FHINDEX|52=20160613-19:17:42.987|56=TESTINDEX|98=0|108=60|141=Y|10=005|
20160613-19:17:43.023: 8=FIX.4.4|9=77|35=A|34=1|49=TESTINDEX|52=20160613-19:17:46.700|56=FHINDEX|98=0|108=60|141=Y|10=248|
20160613-19:17:43.120: 8=FIX.4.4|9=135|35=V|34=2|49=FHINDEX|50=1|52=20160613-19:17:43.120|56=TESTINDEX|262=3fc637f039524c3a|263=1|264=1|146=1|55=INDEXES|207=XSGO|267=1|269=3|10=212|
20160613-19:17:43.123: 8=FIX.4.4|9=180|35=W|34=2|49=TESTINDEX|52=20160613-19:17:46.807|56=FHINDEX|55=IGPA MID (Sin dividendos)|262=3fc637f039524c3a|268=1|269=3|270=13556.15988589|271=4135354186|290=2|811=-0.67|107=XSGO|10=089|
20160613-19:17:43.128: 8=FIX.4.4|9=182|35=W|34=3|49=TESTINDEX|52=20160613-19:17:46.807|56=FHINDEX|55=IGPA SMALL (Sin dividendos)|262=3fc637f039524c3a|268=1|269=3|270=19540.662629508|271=928323922|290=3|811=-0.19|107=XSGO|10=239|
20160613-19:17:43.128: 8=FIX.4.4|9=177|35=W|34=4|49=TESTINDEX|52=20160613-19:17:46.808|56=FHINDEX|55=BANCA (Con dividendos)|262=3fc637f039524c3a|268=1|269=3|270=6873.586551005|271=3809213996|290=4|811=-0.42|107=XSGO|10=137|
20160613-19:17:43.128: 8=FIX.4.4|9=177|35=W|34=5|49=TESTINDEX|52=20160613-19:17:46.808|56=FHINDEX|55=RETAIL (Sin dividendos)|262=3fc637f039524c3a|268=1|269=3|270=3961.717891369|271=2512208289|290=5|811=0.45|107=XSGO|10=215|
20160613-19:17:43.128: 8=FIX.4.4|9=178|35=W|34=6|49=TESTINDEX|52=20160613-19:17:46.808|56=FHINDEX|55=CONSUMO (Con dividendos)|262=3fc637f039524c3a|268=1|269=3|270=5298.147018485|271=834770549|290=6|811=-1.29|107=XSGO|10=051|
20160613-19:17:43.128: 8=FIX.4.4|9=183|35=W|34=7|49=TESTINDEX|52=20160613-19:17:46.808|56=FHINDEX|55=CONST.&INMOB. (Con dividendos)|262=3fc637f039524c3a|268=1|269=3|270=4035.193046806|271=55034849|290=7|811=-0.42|107=XSGO|10=063|
20160613-19:17:43.128: 8=FIX.4.4|9=183|35=W|34=8|49=TESTINDEX|52=20160613-19:17:46.809|56=FHINDEX|55=COMMODITIES (Sin dividendos)|262=3fc637f039524c3a|268=1|269=3|270=2418.832229991|271=3117487400|290=8|811=-0.77|107=XSGO|10=123|
20160613-19:17:43.128: 8=FIX.4.4|9=181|35=W|34=9|49=TESTINDEX|52=20160613-19:17:46.809|56=FHINDEX|55=INTER-10 (Sin dividendos)|262=3fc637f039524c3a|268=1|269=3|270=3592.475463444|271=10909050196|290=9|811=-0.29|107=XSGO|10=128|
20160613-19:17:43.128: 8=FIX.4.4|9=180|35=W|34=10|49=TESTINDEX|52=20160613-19:17:46.809|56=FHINDEX|55=IGPA (Con dividendos)|262=3fc637f039524c3a|268=1|269=3|270=19483.381284561|271=17676251682|290=10|811=-0.46|107=XSGO|10=019|
20160613-19:17:43.129: 8=FIX.4.4|9=182|35=W|34=11|49=TESTINDEX|52=20160613-19:17:46.809|56=FHINDEX|55=INDUSTRIAL (Con dividendos)|262=3fc637f039524c3a|268=1|269=3|270=1754.730513914|271=634672257|290=11|811=-0.8|107=XSGO|10=029|
20160613-19:17:43.129: 8=FIX.4.4|9=179|35=W|34=12|49=TESTINDEX|52=20160613-19:17:46.810|56=FHINDEX|55=IPSA (Sin dividendos)|262=3fc637f039524c3a|268=1|269=3|270=3068.447746948|271=17249001195|290=12|811=-0.45|107=XSGO|10=247|
20160613-19:17:43.129: 8=FIX.4.4|9=185|35=W|34=13|49=TESTINDEX|52=20160613-19:17:46.810|56=FHINDEX|55=CONST.&INMOB. (Sin dividendos)|262=3fc637f039524c3a|268=1|269=3|270=2743.023125221|271=55034849|290=13|811=-0.42|107=XSGO|10=143|
20160613-19:17:43.129: 8=FIX.4.4|9=179|35=W|34=14|49=TESTINDEX|52=20160613-19:17:46.810|56=FHINDEX|55=RETAIL (Con dividendos)|262=3fc637f039524c3a|268=1|269=3|270=4661.943725978|271=2512208289|290=14|811=0.45|107=XSGO|10=041|
20160613-19:17:43.129: 8=FIX.4.4|9=180|35=W|34=15|49=TESTINDEX|52=20160613-19:17:46.810|56=FHINDEX|55=IGPA (Sin dividendos)|262=3fc637f039524c3a|268=1|269=3|270=14843.622005861|271=17676251682|290=15|811=-0.46|107=XSGO|10=018|
20160613-19:17:43.130: 8=FIX.4.4|9=183|35=W|34=16|49=TESTINDEX|52=20160613-19:17:46.810|56=FHINDEX|55=UTILITIES (Con dividendos)|262=3fc637f039524c3a|268=1|269=3|270=4890.211672106|271=4738201737|290=16|811=-0.66|107=XSGO|10=062|
20160613-19:17:43.130: 8=FIX.4.4|9=183|35=W|34=17|49=TESTINDEX|52=20160613-19:17:46.811|56=FHINDEX|55=INTER-10 (Con dividendos)|262=3fc637f039524c3a|268=1|269=3|270=4748.843339861|271=10909050196|290=17|811=-0.29|107=XSGO|10=215|
20160613-19:17:43.130: 8=FIX.4.4|9=185|35=W|34=18|49=TESTINDEX|52=20160613-19:17:46.811|56=FHINDEX|55=COMMODITIES (Con dividendos)|262=3fc637f039524c3a|268=1|269=3|270=2971.062368713|271=3117487400|290=18|811=-0.77|107=XSGO|10=201|
20160613-19:17:43.130: 8=FIX.4.4|9=179|35=W|34=19|49=TESTINDEX|52=20160613-19:17:46.811|56=FHINDEX|55=BANCA (Sin dividendos)|262=3fc637f039524c3a|268=1|269=3|270=4244.125948332|271=3809213996|290=19|811=-0.42|107=XSGO|10=243|
20160613-19:17:43.131: 8=FIX.4.4|9=179|35=W|34=20|49=TESTINDEX|52=20160613-19:17:46.811|56=FHINDEX|55=IPSA (Con dividendos)|262=3fc637f039524c3a|268=1|269=3|270=3936.756393305|271=17249001195|290=20|811=-0.45|107=XSGO|10=228|
20160613-19:17:43.131: 8=FIX.4.4|9=186|35=W|34=21|49=TESTINDEX|52=20160613-19:17:46.812|56=FHINDEX|55=IGPA LARGE (Con dividendos)|262=3fc637f039524c3a|268=1|269=3|270=17377.052771506|271=12299965057|290=21|811=-0.41|107=XSGO|10=156|
20160613-19:17:43.131: 8=FIX.4.4|9=186|35=W|34=22|49=TESTINDEX|52=20160613-19:17:46.812|56=FHINDEX|55=IGPA LARGE (Sin dividendos)|262=3fc637f039524c3a|268=1|269=3|270=13569.398010656|271=12299965057|290=22|811=-0.41|107=XSGO|10=172|
20160613-19:17:43.131: 8=FIX.4.4|9=182|35=W|34=23|49=TESTINDEX|52=20160613-19:17:46.812|56=FHINDEX|55=INDUSTRIAL (Sin dividendos)|262=3fc637f039524c3a|268=1|269=3|270=1417.219942622|271=634672257|290=23|811=-0.8|107=XSGO|10=039|
20160613-19:17:43.131: 8=FIX.4.4|9=180|35=W|34=24|49=TESTINDEX|52=20160613-19:17:46.812|56=FHINDEX|55=CONSUMO (Sin dividendos)|262=3fc637f039524c3a|268=1|269=3|270=3895.234465788|271=834770549|290=24|811=-1.29|107=XSGO|10=155|
20160613-19:17:43.131: 8=FIX.4.4|9=183|35=W|34=25|49=TESTINDEX|52=20160613-19:17:46.812|56=FHINDEX|55=IGPA MID (Con dividendos)|262=3fc637f039524c3a|268=1|269=3|270=18985.698531547|271=4135354186|290=25|811=-0.67|107=XSGO|10=238|
20160613-19:17:43.131: 8=FIX.4.4|9=184|35=W|34=26|49=TESTINDEX|52=20160613-19:17:46.813|56=FHINDEX|55=IGPA SMALL (Con dividendos)|262=3fc637f039524c3a|268=1|269=3|270=27272.713386658|271=928323922|290=26|811=-0.19|107=XSGO|10=082|
20160613-19:17:43.132: 8=FIX.4.4|9=183|35=W|34=27|49=TESTINDEX|52=20160613-19:17:46.813|56=FHINDEX|55=UTILITIES (Sin dividendos)|262=3fc637f039524c3a|268=1|269=3|270=3604.375947916|271=4738201737|290=27|811=-0.66|107=XSGO|10=096|
20160613-19:17:51.804: 8=FIX.4.4|9=179|35=X|34=28|49=TESTINDEX|52=20160613-19:17:55.487|56=FHINDEX|262=3fc637f039524c3a|268=1|279=1|269=3|55=INTER-10 (Sin dividendos)|270=3592.545383961|271=10919535474|290=1|811=-0.29|10=184|
20160613-19:17:51.805: 8=FIX.4.4|9=175|35=X|34=29|49=TESTINDEX|52=20160613-19:17:55.489|56=FHINDEX|262=3fc637f039524c3a|268=1|279=1|269=3|55=IPSA (Con dividendos)|270=3936.791379249|271=17259486473|290=1|811=-0.45|10=217|
20160613-19:17:51.807: 8=FIX.4.4|9=175|35=X|34=30|49=TESTINDEX|52=20160613-19:17:55.491|56=FHINDEX|262=3fc637f039524c3a|268=1|279=1|269=3|55=BANCA (Sin dividendos)|270=4244.359539684|271=3819699274|290=1|811=-0.42|10=197|
20160613-19:17:51.810: 8=FIX.4.4|9=176|35=X|34=31|49=TESTINDEX|52=20160613-19:17:55.494|56=FHINDEX|262=3fc637f039524c3a|268=1|279=1|269=3|55=IGPA (Sin dividendos)|270=14843.736681135|271=17686736960|290=1|811=-0.46|10=245|
20160613-19:17:51.813: 8=FIX.4.4|9=175|35=X|34=32|49=TESTINDEX|52=20160613-19:17:55.497|56=FHINDEX|262=3fc637f039524c3a|268=1|279=1|269=3|55=BANCA (Con dividendos)|270=6873.964864559|271=3819699274|290=1|811=-0.42|10=209|
20160613-19:17:51.816: 8=FIX.4.4|9=179|35=X|34=33|49=TESTINDEX|52=20160613-19:17:55.500|56=FHINDEX|262=3fc637f039524c3a|268=1|279=1|269=3|55=IGPA MID (Con dividendos)|270=18986.413663188|271=4145839464|290=1|811=-0.67|10=178|
20160613-19:17:51.819: 8=FIX.4.4|9=178|35=X|34=34|49=TESTINDEX|52=20160613-19:17:55.503|56=FHINDEX|262=3fc637f039524c3a|268=1|279=1|269=3|55=INTER-10 (Con dividendos)|270=4748.93576682|271=10919535474|290=1|811=-0.29|10=117|
20160613-19:17:51.822: 8=FIX.4.4|9=175|35=X|34=35|49=TESTINDEX|52=20160613-19:17:55.506|56=FHINDEX|262=3fc637f039524c3a|268=1|279=1|269=3|55=IPSA (Sin dividendos)|270=3068.475016235|271=17259486473|290=1|811=-0.45|10=192|
20160613-19:17:51.826: 8=FIX.4.4|9=176|35=X|34=36|49=TESTINDEX|52=20160613-19:17:55.510|56=FHINDEX|262=3fc637f039524c3a|268=1|279=1|269=3|55=IGPA (Con dividendos)|270=19483.531804567|271=17686736960|290=1|811=-0.46|10=233|
20160613-19:17:51.828: 8=FIX.4.4|9=179|35=X|34=37|49=TESTINDEX|52=20160613-19:17:55.513|56=FHINDEX|262=3fc637f039524c3a|268=1|279=1|269=3|55=IGPA MID (Sin dividendos)|270=13556.670503861|271=4145839464|290=1|811=-0.67|10=180|
20160613-19:17:57.894: 8=FIX.4.4|9=77|35=A|34=1|49=FHINDEX|52=20160613-19:17:57.894|56=TESTINDEX|98=0|108=60|141=Y|10=008|
20160613-19:17:57.926: 8=FIX.4.4|9=77|35=A|34=1|49=TESTINDEX|52=20160613-19:18:01.595|56=FHINDEX|98=0|108=60|141=Y|10=252|
20160613-19:17:58.035: 8=FIX.4.4|9=136|35=V|34=2|49=FHINDEX|50=1|52=20160613-19:17:58.034|56=TESTINDEX|262=-3c35c6ac5623b209|263=1|264=1|146=1|55=INDEXES|207=XSGO|267=1|269=3|10=004|
20160613-19:17:58.038: 8=FIX.4.4|9=182|35=W|34=2|49=TESTINDEX|52=20160613-19:18:01.721|56=FHINDEX|55=IGPA MID (Sin dividendos)|262=-3c35c6ac5623b209|268=1|269=3|270=13556.670503861|271=4145839464|290=2|811=-0.67|107=XSGO|10=154|
20160613-19:17:58.043: 8=FIX.4.4|9=183|35=W|34=3|49=TESTINDEX|52=20160613-19:18:01.722|56=FHINDEX|55=IGPA SMALL (Sin dividendos)|262=-3c35c6ac5623b209|268=1|269=3|270=19540.662629508|271=928323922|290=3|811=-0.19|107=XSGO|10=009|
20160613-19:17:58.043: 8=FIX.4.4|9=178|35=W|34=4|49=TESTINDEX|52=20160613-19:18:01.723|56=FHINDEX|55=BANCA (Con dividendos)|262=-3c35c6ac5623b209|268=1|269=3|270=6873.964864559|271=3819699274|290=4|811=-0.42|107=XSGO|10=192|
20160613-19:17:58.043: 8=FIX.4.4|9=178|35=W|34=5|49=TESTINDEX|52=20160613-19:18:01.723|56=FHINDEX|55=RETAIL (Sin dividendos)|262=-3c35c6ac5623b209|268=1|269=3|270=3961.717891369|271=2512208289|290=5|811=0.45|107=XSGO|10=241|
20160613-19:17:58.043: 8=FIX.4.4|9=179|35=W|34=6|49=TESTINDEX|52=20160613-19:18:01.724|56=FHINDEX|55=CONSUMO (Con dividendos)|262=-3c35c6ac5623b209|268=1|269=3|270=5298.147018485|271=834770549|290=6|811=-1.29|107=XSGO|10=078|
20160613-19:17:58.043: 8=FIX.4.4|9=184|35=W|34=7|49=TESTINDEX|52=20160613-19:18:01.724|56=FHINDEX|55=CONST.&INMOB. (Con dividendos)|262=-3c35c6ac5623b209|268=1|269=3|270=4035.193046806|271=55034849|290=7|811=-0.42|107=XSGO|10=090|
20160613-19:17:58.044: 8=FIX.4.4|9=184|35=W|34=8|49=TESTINDEX|52=20160613-19:18:01.724|56=FHINDEX|55=COMMODITIES (Sin dividendos)|262=-3c35c6ac5623b209|268=1|269=3|270=2418.832229991|271=3117487400|290=8|811=-0.77|107=XSGO|10=149|
20160613-19:17:58.044: 8=FIX.4.4|9=182|35=W|34=9|49=TESTINDEX|52=20160613-19:18:01.725|56=FHINDEX|55=INTER-10 (Sin dividendos)|262=-3c35c6ac5623b209|268=1|269=3|270=3592.545383961|271=10919535474|290=9|811=-0.29|107=XSGO|10=166|
20160613-19:17:58.044: 8=FIX.4.4|9=181|35=W|34=10|49=TESTINDEX|52=20160613-19:18:01.725|56=FHINDEX|55=IGPA (Con dividendos)|262=-3c35c6ac5623b209|268=1|269=3|270=19483.531804567|271=17686736960|290=10|811=-0.46|107=XSGO|10=055|
20160613-19:17:58.044: 8=FIX.4.4|9=183|35=W|34=11|49=TESTINDEX|52=20160613-19:18:01.725|56=FHINDEX|55=INDUSTRIAL (Con dividendos)|262=-3c35c6ac5623b209|268=1|269=3|270=1754.730513914|271=634672257|290=11|811=-0.8|107=XSGO|10=056|
20160613-19:17:58.044: 8=FIX.4.4|9=180|35=W|34=12|49=TESTINDEX|52=20160613-19:18:01.726|56=FHINDEX|55=IPSA (Sin dividendos)|262=-3c35c6ac5623b209|268=1|269=3|270=3068.475016235|271=17259486473|290=12|811=-0.45|107=XSGO|10=015|
20160613-19:17:58.044: 8=FIX.4.4|9=186|35=W|34=13|49=TESTINDEX|52=20160613-19:18:01.726|56=FHINDEX|55=CONST.&INMOB. (Sin dividendos)|262=-3c35c6ac5623b209|268=1|269=3|270=2743.023125221|271=55034849|290=13|811=-0.42|107=XSGO|10=179|
20160613-19:17:58.044: 8=FIX.4.4|9=180|35=W|34=14|49=TESTINDEX|52=20160613-19:18:01.726|56=FHINDEX|55=RETAIL (Con dividendos)|262=-3c35c6ac5623b209|268=1|269=3|270=4661.943725978|271=2512208289|290=14|811=0.45|107=XSGO|10=068|
20160613-19:17:58.045: 8=FIX.4.4|9=181|35=W|34=15|49=TESTINDEX|52=20160613-19:18:01.726|56=FHINDEX|55=IGPA (Sin dividendos)|262=-3c35c6ac5623b209|268=1|269=3|270=14843.736681135|271=17686736960|290=15|811=-0.46|107=XSGO|10=072|
20160613-19:17:58.045: 8=FIX.4.4|9=184|35=W|34=16|49=TESTINDEX|52=20160613-19:18:01.727|56=FHINDEX|55=UTILITIES (Con dividendos)|262=-3c35c6ac5623b209|268=1|269=3|270=4890.211672106|271=4738201737|290=16|811=-0.66|107=XSGO|10=099|
20160613-19:17:58.045: 8=FIX.4.4|9=183|35=W|34=17|49=TESTINDEX|52=20160613-19:18:01.727|56=FHINDEX|55=INTER-10 (Con dividendos)|262=-3c35c6ac5623b209|268=1|269=3|270=4748.93576682|271=10919535474|290=17|811=-0.29|107=XSGO|10=211|
20160613-19:17:58.045: 8=FIX.4.4|9=186|35=W|34=18|49=TESTINDEX|52=20160613-19:18:01.727|56=FHINDEX|55=COMMODITIES (Con dividendos)|262=-3c35c6ac5623b209|268=1|269=3|270=2971.062368713|271=3117487400|290=18|811=-0.77|107=XSGO|10=237|
20160613-19:17:58.046: 8=FIX.4.4|9=180|35=W|34=19|49=TESTINDEX|52=20160613-19:18:01.727|56=FHINDEX|55=BANCA (Sin dividendos)|262=-3c35c6ac5623b209|268=1|269=3|270=4244.359539684|271=3819699274|290=19|811=-0.42|107=XSGO|10=037|
20160613-19:17:58.046: 8=FIX.4.4|9=180|35=W|34=20|49=TESTINDEX|52=20160613-19:18:01.728|56=FHINDEX|55=IPSA (Con dividendos)|262=-3c35c6ac5623b209|268=1|269=3|270=3936.791379249|271=17259486473|290=20|811=-0.45|107=XSGO|10=027|
20160613-19:17:58.046: 8=FIX.4.4|9=187|35=W|34=21|49=TESTINDEX|52=20160613-19:18:01.728|56=FHINDEX|55=IGPA LARGE (Con dividendos)|262=-3c35c6ac5623b209|268=1|269=3|270=17377.052771506|271=12299965057|290=21|811=-0.41|107=XSGO|10=192|
20160613-19:17:58.046: 8=FIX.4.4|9=187|35=W|34=22|49=TESTINDEX|52=20160613-19:18:01.728|56=FHINDEX|55=IGPA LARGE (Sin dividendos)|262=-3c35c6ac5623b209|268=1|269=3|270=13569.398010656|271=12299965057|290=22|811=-0.41|107=XSGO|10=208|
20160613-19:17:58.046: 8=FIX.4.4|9=183|35=W|34=23|49=TESTINDEX|52=20160613-19:18:01.729|56=FHINDEX|55=INDUSTRIAL (Sin dividendos)|262=-3c35c6ac5623b209|268=1|269=3|270=1417.219942622|271=634672257|290=23|811=-0.8|107=XSGO|10=076|
20160613-19:17:58.046: 8=FIX.4.4|9=181|35=W|34=24|49=TESTINDEX|52=20160613-19:18:01.729|56=FHINDEX|55=CONSUMO (Sin dividendos)|262=-3c35c6ac5623b209|268=1|269=3|270=3895.234465788|271=834770549|290=24|811=-1.29|107=XSGO|10=192|
20160613-19:17:58.046: 8=FIX.4.4|9=184|35=W|34=25|49=TESTINDEX|52=20160613-19:18:01.729|56=FHINDEX|55=IGPA MID (Con dividendos)|262=-3c35c6ac5623b209|268=1|269=3|270=18986.413663188|271=4145839464|290=25|811=-0.67|107=XSGO|10=020|
20160613-19:17:58.047: 8=FIX.4.4|9=185|35=W|34=26|49=TESTINDEX|52=20160613-19:18:01.730|56=FHINDEX|55=IGPA SMALL (Con dividendos)|262=-3c35c6ac5623b209|268=1|269=3|270=27272.713386658|271=928323922|290=26|811=-0.19|107=XSGO|10=110|
20160613-19:17:58.047: 8=FIX.4.4|9=184|35=W|34=27|49=TESTINDEX|52=20160613-19:18:01.730|56=FHINDEX|55=UTILITIES (Sin dividendos)|262=-3c35c6ac5623b209|268=1|269=3|270=3604.375947916|271=4738201737|290=27|811=-0.66|107=XSGO|10=124|
20160613-19:18:49.676: 8=FIX.4.4|9=77|35=A|34=1|49=FHINDEX|52=20160613-19:18:49.676|56=TESTINDEX|98=0|108=60|141=Y|10=008|
20160613-19:18:49.702: 8=FIX.4.4|9=77|35=A|34=1|49=TESTINDEX|52=20160613-19:18:53.377|56=FHINDEX|98=0|108=60|141=Y|10=001|
20160613-19:18:49.846: 8=FIX.4.4|9=136|35=V|34=2|49=FHINDEX|50=1|52=20160613-19:18:49.846|56=TESTINDEX|262=-2f57a162fbd2be9a|263=1|264=1|146=1|55=INDEXES|207=XSGO|267=1|269=3|10=165|
20160613-19:18:49.848: 8=FIX.4.4|9=181|35=W|34=2|49=TESTINDEX|52=20160613-19:18:53.535|56=FHINDEX|55=IGPA MID (Sin dividendos)|262=-2f57a162fbd2be9a|268=1|269=3|270=13556.15988589|271=4166150645|290=2|811=-0.67|107=XSGO|10=015|
20160613-19:18:49.856: 8=FIX.4.4|9=183|35=W|34=3|49=TESTINDEX|52=20160613-19:18:53.536|56=FHINDEX|55=IGPA SMALL (Sin dividendos)|262=-2f57a162fbd2be9a|268=1|269=3|270=19540.662629508|271=928323922|290=3|811=-0.19|107=XSGO|10=168|
20160613-19:18:49.856: 8=FIX.4.4|9=178|35=W|34=4|49=TESTINDEX|52=20160613-19:18:53.536|56=FHINDEX|55=BANCA (Con dividendos)|262=-2f57a162fbd2be9a|268=1|269=3|270=6873.586551005|271=3840010455|290=4|811=-0.42|107=XSGO|10=045|
20160613-19:18:49.857: 8=FIX.4.4|9=178|35=W|34=5|49=TESTINDEX|52=20160613-19:18:53.536|56=FHINDEX|55=RETAIL (Sin dividendos)|262=-2f57a162fbd2be9a|268=1|269=3|270=3961.717891369|271=2512208289|290=5|811=0.45|107=XSGO|10=143|
20160613-19:18:49.857: 8=FIX.4.4|9=179|35=W|34=6|49=TESTINDEX|52=20160613-19:18:53.536|56=FHINDEX|55=CONSUMO (Con dividendos)|262=-2f57a162fbd2be9a|268=1|269=3|270=5298.147018485|271=834770549|290=6|811=-1.29|107=XSGO|10=235|
20160613-19:18:49.858: 8=FIX.4.4|9=184|35=W|34=7|49=TESTINDEX|52=20160613-19:18:53.536|56=FHINDEX|55=CONST.&INMOB. (Con dividendos)|262=-2f57a162fbd2be9a|268=1|269=3|270=4035.193046806|271=55034849|290=7|811=-0.42|107=XSGO|10=247|
20160613-19:18:49.858: 8=FIX.4.4|9=184|35=W|34=8|49=TESTINDEX|52=20160613-19:18:53.537|56=FHINDEX|55=COMMODITIES (Sin dividendos)|262=-2f57a162fbd2be9a|268=1|269=3|270=2418.832229991|271=3117487400|290=8|811=-0.77|107=XSGO|10=051|
20160613-19:18:49.858: 8=FIX.4.4|9=182|35=W|34=9|49=TESTINDEX|52=20160613-19:18:53.537|56=FHINDEX|55=INTER-10 (Sin dividendos)|262=-2f57a162fbd2be9a|268=1|269=3|270=3592.475463444|271=10939846655|290=9|811=-0.29|107=XSGO|10=072|
20160613-19:18:49.859: 8=FIX.4.4|9=181|35=W|34=10|49=TESTINDEX|52=20160613-19:18:53.537|56=FHINDEX|55=IGPA (Con dividendos)|262=-2f57a162fbd2be9a|268=1|269=3|270=19483.381284561|271=17707048141|290=10|811=-0.46|107=XSGO|10=192|
20160613-19:18:49.859: 8=FIX.4.4|9=183|35=W|34=11|49=TESTINDEX|52=20160613-19:18:53.537|56=FHINDEX|55=INDUSTRIAL (Con dividendos)|262=-2f57a162fbd2be9a|268=1|269=3|270=1754.730513914|271=634672257|290=11|811=-0.8|107=XSGO|10=213|
20160613-19:18:49.860: 8=FIX.4.4|9=180|35=W|34=12|49=TESTINDEX|52=20160613-19:18:53.537|56=FHINDEX|55=IPSA (Sin dividendos)|262=-2f57a162fbd2be9a|268=1|269=3|270=3068.447746948|271=17279797654|290=12|811=-0.45|107=XSGO|10=199|
20160613-19:18:49.860: 8=FIX.4.4|9=186|35=W|34=13|49=TESTINDEX|52=20160613-19:18:53.537|56=FHINDEX|55=CONST.&INMOB. (Sin dividendos)|262=-2f57a162fbd2be9a|268=1|269=3|270=2743.023125221|271=55034849|290=13|811=-0.42|107=XSGO|10=079|
20160613-19:18:49.860: 8=FIX.4.4|9=180|35=W|34=14|49=TESTINDEX|52=20160613-19:18:53.538|56=FHINDEX|55=RETAIL (Con dividendos)|262=-2f57a162fbd2be9a|268=1|269=3|270=4661.943725978|271=2512208289|290=14|811=0.45|107=XSGO|10=225|
20160613-19:18:49.860: 8=FIX.4.4|9=181|35=W|34=15|49=TESTINDEX|52=20160613-19:18:53.538|56=FHINDEX|55=IGPA (Sin dividendos)|262=-2f57a162fbd2be9a|268=1|269=3|270=14843.622005861|271=17707048141|290=15|811=-0.46|107=XSGO|10=200|
20160613-19:18:49.860: 8=FIX.4.4|9=184|35=W|34=16|49=TESTINDEX|52=20160613-19:18:53.538|56=FHINDEX|55=UTILITIES (Con dividendos)|262=-2f57a162fbd2be9a|268=1|269=3|270=4890.211672106|271=4738201737|290=16|811=-0.66|107=XSGO|10=255|
20160613-19:18:49.860: 8=FIX.4.4|9=184|35=W|34=17|49=TESTINDEX|52=20160613-19:18:53.538|56=FHINDEX|55=INTER-10 (Con dividendos)|262=-2f57a162fbd2be9a|268=1|269=3|270=4748.843339861|271=10939846655|290=17|811=-0.29|107=XSGO|10=167|
20160613-19:18:49.860: 8=FIX.4.4|9=186|35=W|34=18|49=TESTINDEX|52=20160613-19:18:53.538|56=FHINDEX|55=COMMODITIES (Con dividendos)|262=-2f57a162fbd2be9a|268=1|269=3|270=2971.062368713|271=3117487400|290=18|811=-0.77|107=XSGO|10=137|
20160613-19:18:49.861: 8=FIX.4.4|9=180|35=W|34=19|49=TESTINDEX|52=20160613-19:18:53.538|56=FHINDEX|55=BANCA (Sin dividendos)|262=-2f57a162fbd2be9a|268=1|269=3|270=4244.125948332|271=3840010455|290=19|811=-0.42|107=XSGO|10=150|
20160613-19:18:49.861: 8=FIX.4.4|9=180|35=W|34=20|49=TESTINDEX|52=20160613-19:18:53.539|56=FHINDEX|55=IPSA (Con dividendos)|262=-2f57a162fbd2be9a|268=1|269=3|270=3936.756393305|271=17279797654|290=20|811=-0.45|107=XSGO|10=181|
20160613-19:18:49.861: 8=FIX.4.4|9=187|35=W|34=21|49=TESTINDEX|52=20160613-19:18:53.539|56=FHINDEX|55=IGPA LARGE (Con dividendos)|262=-2f57a162fbd2be9a|268=1|269=3|270=17377.052771506|271=12299965057|290=21|811=-0.41|107=XSGO|10=092|
20160613-19:18:49.861: 8=FIX.4.4|9=187|35=W|34=22|49=TESTINDEX|52=20160613-19:18:53.539|56=FHINDEX|55=IGPA LARGE (Sin dividendos)|262=-2f57a162fbd2be9a|268=1|269=3|270=13569.398010656|271=12299965057|290=22|811=-0.41|107=XSGO|10=108|
20160613-19:18:49.861: 8=FIX.4.4|9=183|35=W|34=23|49=TESTINDEX|52=20160613-19:18:53.539|56=FHINDEX|55=INDUSTRIAL (Sin dividendos)|262=-2f57a162fbd2be9a|268=1|269=3|270=1417.219942622|271=634672257|290=23|811=-0.8|107=XSGO|10=231|
20160613-19:18:49.861: 8=FIX.4.4|9=181|35=W|34=24|49=TESTINDEX|52=20160613-19:18:53.539|56=FHINDEX|55=CONSUMO (Sin dividendos)|262=-2f57a162fbd2be9a|268=1|269=3|270=3895.234465788|271=834770549|290=24|811=-1.29|107=XSGO|10=091|
20160613-19:18:49.862: 8=FIX.4.4|9=184|35=W|34=25|49=TESTINDEX|52=20160613-19:18:53.539|56=FHINDEX|55=IGPA MID (Con dividendos)|262=-2f57a162fbd2be9a|268=1|269=3|270=18985.698531547|271=4166150645|290=25|811=-0.67|107=XSGO|10=172|
20160613-19:18:49.862: 8=FIX.4.4|9=185|35=W|34=26|49=TESTINDEX|52=20160613-19:18:53.540|56=FHINDEX|55=IGPA SMALL (Con dividendos)|262=-2f57a162fbd2be9a|268=1|269=3|270=27272.713386658|271=928323922|290=26|811=-0.19|107=XSGO|10=009|
20160613-19:18:49.862: 8=FIX.4.4|9=184|35=W|34=27|49=TESTINDEX|52=20160613-19:18:53.540|56=FHINDEX|55=UTILITIES (Sin dividendos)|262=-2f57a162fbd2be9a|268=1|269=3|270=3604.375947916|271=4738201737|290=27|811=-0.66|107=XSGO|10=023|
20160613-19:18:52.053: 8=FIX.4.4|9=180|35=X|34=28|49=TESTINDEX|52=20160613-19:18:55.738|56=FHINDEX|262=-2f57a162fbd2be9a|268=1|279=1|269=3|55=INTER-10 (Sin dividendos)|270=3592.510423703|271=10940950835|290=1|811=-0.29|10=083|
20160613-19:18:52.053: 8=FIX.4.4|9=176|35=X|34=29|49=TESTINDEX|52=20160613-19:18:55.739|56=FHINDEX|262=-2f57a162fbd2be9a|268=1|279=1|269=3|55=IPSA (Con dividendos)|270=3936.773886277|271=17286968997|290=1|811=-0.45|10=167|
20160613-19:18:52.054: 8=FIX.4.4|9=181|35=X|34=30|49=TESTINDEX|52=20160613-19:18:55.740|56=FHINDEX|262=-2f57a162fbd2be9a|268=1|279=1|269=3|55=IGPA SMALL (Con dividendos)|270=27272.713386658|271=928396815|290=1|811=-0.19|10=211|
20160613-19:18:52.057: 8=FIX.4.4|9=177|35=X|34=31|49=TESTINDEX|52=20160613-19:18:55.741|56=FHINDEX|262=-2f57a162fbd2be9a|268=1|279=1|269=3|55=CONSUMO (Sin dividendos)|270=3895.234465788|271=840764819|290=1|811=-1.29|10=033|
20160613-19:18:52.057: 8=FIX.4.4|9=182|35=X|34=32|49=TESTINDEX|52=20160613-19:18:55.743|56=FHINDEX|262=-2f57a162fbd2be9a|268=1|279=1|269=3|55=COMMODITIES (Sin dividendos)|270=2418.832229991|271=3117560293|290=1|811=-0.77|10=085|
20160613-19:18:52.059: 8=FIX.4.4|9=176|35=X|34=33|49=TESTINDEX|52=20160613-19:18:55.746|56=FHINDEX|262=-2f57a162fbd2be9a|268=1|279=1|269=3|55=BANCA (Sin dividendos)|270=4244.242744008|271=3841114635|290=1|811=-0.42|10=092|
20160613-19:18:52.062: 8=FIX.4.4|9=177|35=X|34=34|49=TESTINDEX|52=20160613-19:18:55.749|56=FHINDEX|262=-2f57a162fbd2be9a|268=1|279=1|269=3|55=IGPA (Sin dividendos)|270=14843.679343498|271=17714219484|290=1|811=-0.46|10=185|
20160613-19:18:52.065: 8=FIX.4.4|9=182|35=X|34=35|49=TESTINDEX|52=20160613-19:18:55.752|56=FHINDEX|262=-2f57a162fbd2be9a|268=1|279=1|269=3|55=COMMODITIES (Con dividendos)|270=2971.062368713|271=3117560293|290=1|811=-0.77|10=073|
20160613-19:18:52.068: 8=FIX.4.4|9=176|35=X|34=36|49=TESTINDEX|52=20160613-19:18:55.755|56=FHINDEX|262=-2f57a162fbd2be9a|268=1|279=1|269=3|55=BANCA (Con dividendos)|270=6873.775707782|271=3841114635|290=1|811=-0.42|10=114|
20160613-19:18:52.072: 8=FIX.4.4|9=180|35=X|34=37|49=TESTINDEX|52=20160613-19:18:55.759|56=FHINDEX|262=-2f57a162fbd2be9a|268=1|279=1|269=3|55=IGPA MID (Con dividendos)|270=18986.056097367|271=4173249095|290=1|811=-0.67|10=120|
20160613-19:18:52.076: 8=FIX.4.4|9=179|35=X|34=38|49=TESTINDEX|52=20160613-19:18:55.763|56=FHINDEX|262=-2f57a162fbd2be9a|268=1|279=1|269=3|55=INTER-10 (Con dividendos)|270=4748.88955334|271=10940950835|290=1|811=-0.29|10=056|
20160613-19:18:52.080: 8=FIX.4.4|9=176|35=X|34=39|49=TESTINDEX|52=20160613-19:18:55.767|56=FHINDEX|262=-2f57a162fbd2be9a|268=1|279=1|269=3|55=IPSA (Sin dividendos)|270=3068.461381591|271=17286968997|290=1|811=-0.45|10=158|
20160613-19:18:52.083: 8=FIX.4.4|9=181|35=X|34=40|49=TESTINDEX|52=20160613-19:18:55.770|56=FHINDEX|262=-2f57a162fbd2be9a|268=1|279=1|269=3|55=IGPA SMALL (Sin dividendos)|270=19540.662629508|271=928396815|290=1|811=-0.19|10=221|
20160613-19:18:52.087: 8=FIX.4.4|9=177|35=X|34=41|49=TESTINDEX|52=20160613-19:18:55.774|56=FHINDEX|262=-2f57a162fbd2be9a|268=1|279=1|269=3|55=CONSUMO (Con dividendos)|270=5298.147018485|271=840764819|290=1|811=-1.29|10=020|
20160613-19:18:52.090: 8=FIX.4.4|9=177|35=X|34=42|49=TESTINDEX|52=20160613-19:18:55.778|56=FHINDEX|262=-2f57a162fbd2be9a|268=1|279=1|269=3|55=IGPA (Con dividendos)|270=19483.456544564|271=17714219484|290=1|811=-0.46|10=171|
20160613-19:18:52.095: 8=FIX.4.4|9=180|35=X|34=43|49=TESTINDEX|52=20160613-19:18:55.782|56=FHINDEX|262=-2f57a162fbd2be9a|268=1|279=1|269=3|55=IGPA MID (Sin dividendos)|270=13556.415194875|271=4173249095|290=1|811=-0.67|10=112|
20160613-19:18:56.954: 8=FIX.4.4|9=77|35=A|34=1|49=FHINDEX|52=20160613-19:18:56.954|56=TESTINDEX|98=0|108=60|141=Y|10=005|
20160613-19:18:56.975: 8=FIX.4.4|9=77|35=A|34=1|49=TESTINDEX|52=20160613-19:19:00.656|56=FHINDEX|98=0|108=60|141=Y|10=250|
20160613-19:18:57.075: 8=FIX.4.4|9=135|35=V|34=2|49=FHINDEX|50=1|52=20160613-19:18:57.074|56=TESTINDEX|262=2cebbb5b86ce4dc0|263=1|264=1|146=1|55=INDEXES|207=XSGO|267=1|269=3|10=202|
20160613-19:18:57.076: 8=FIX.4.4|9=181|35=W|34=2|49=TESTINDEX|52=20160613-19:19:00.764|56=FHINDEX|55=IGPA MID (Sin dividendos)|262=2cebbb5b86ce4dc0|268=1|269=3|270=13556.415194875|271=4173249095|290=2|811=-0.67|107=XSGO|10=103|
20160613-19:18:57.081: 8=FIX.4.4|9=182|35=W|34=3|49=TESTINDEX|52=20160613-19:19:00.764|56=FHINDEX|55=IGPA SMALL (Sin dividendos)|262=2cebbb5b86ce4dc0|268=1|269=3|270=19540.662629508|271=928396815|290=3|811=-0.19|107=XSGO|10=220|
20160613-19:18:57.081: 8=FIX.4.4|9=177|35=W|34=4|49=TESTINDEX|52=20160613-19:19:00.765|56=FHINDEX|55=BANCA (Con dividendos)|262=2cebbb5b86ce4dc0|268=1|269=3|270=6873.775707782|271=3841114635|290=4|811=-0.42|107=XSGO|10=108|
20160613-19:18:57.081: 8=FIX.4.4|9=177|35=W|34=5|49=TESTINDEX|52=20160613-19:19:00.765|56=FHINDEX|55=RETAIL (Sin dividendos)|262=2cebbb5b86ce4dc0|268=1|269=3|270=3961.717891369|271=2512208289|290=5|811=0.45|107=XSGO|10=185|
20160613-19:18:57.081: 8=FIX.4.4|9=178|35=W|34=6|49=TESTINDEX|52=20160613-19:19:00.765|56=FHINDEX|55=CONSUMO (Con dividendos)|262=2cebbb5b86ce4dc0|268=1|269=3|270=5298.147018485|271=840764819|290=6|811=-1.29|107=XSGO|10=021|
20160613-19:18:57.081: 8=FIX.4.4|9=183|35=W|34=7|49=TESTINDEX|52=20160613-19:19:00.765|56=FHINDEX|55=CONST.&INMOB. (Con dividendos)|262=2cebbb5b86ce4dc0|268=1|269=3|270=4035.193046806|271=55034849|290=7|811=-0.42|107=XSGO|10=033|
20160613-19:18:57.081: 8=FIX.4.4|9=183|35=W|34=8|49=TESTINDEX|52=20160613-19:19:00.765|56=FHINDEX|55=COMMODITIES (Sin dividendos)|262=2cebbb5b86ce4dc0|268=1|269=3|270=2418.832229991|271=3117560293|290=8|811=-0.77|107=XSGO|10=094|
20160613-19:18:57.082: 8=FIX.4.4|9=181|35=W|34=9|49=TESTINDEX|52=20160613-19:19:00.765|56=FHINDEX|55=INTER-10 (Sin dividendos)|262=2cebbb5b86ce4dc0|268=1|269=3|270=3592.510423703|271=10940950835|290=9|811=-0.29|107=XSGO|10=085|
20160613-19:18:57.082: 8=FIX.4.4|9=180|35=W|34=10|49=TESTINDEX|52=20160613-19:19:00.766|56=FHINDEX|55=IGPA (Con dividendos)|262=2cebbb5b86ce4dc0|268=1|269=3|270=19483.456544564|271=17714219484|290=10|811=-0.46|107=XSGO|10=247|
20160613-19:18:57.082: 8=FIX.4.4|9=182|35=W|34=11|49=TESTINDEX|52=20160613-19:19:00.766|56=FHINDEX|55=INDUSTRIAL (Con dividendos)|262=2cebbb5b86ce4dc0|268=1|269=3|270=1754.730513914|271=634672257|290=11|811=-0.8|107=XSGO|10=255|
20160613-19:18:57.082: 8=FIX.4.4|9=179|35=W|34=12|49=TESTINDEX|52=20160613-19:19:00.766|56=FHINDEX|55=IPSA (Sin dividendos)|262=2cebbb5b86ce4dc0|268=1|269=3|270=3068.461381591|271=17286968997|290=12|811=-0.45|107=XSGO|10=243|
20160613-19:18:57.082: 8=FIX.4.4|9=185|35=W|34=13|49=TESTINDEX|52=20160613-19:19:00.766|56=FHINDEX|55=CONST.&INMOB. (Sin dividendos)|262=2cebbb5b86ce4dc0|268=1|269=3|270=2743.023125221|271=55034849|290=13|811=-0.42|107=XSGO|10=121|
20160613-19:18:57.083: 8=FIX.4.4|9=179|35=W|34=14|49=TESTINDEX|52=20160613-19:19:00.766|56=FHINDEX|55=RETAIL (Con dividendos)|262=2cebbb5b86ce4dc0|268=1|269=3|270=4661.943725978|271=2512208289|290=14|811=0.45|107=XSGO|10=019|
20160613-19:18:57.083: 8=FIX.4.4|9=180|35=W|34=15|49=TESTINDEX|52=20160613-19:19:00.766|56=FHINDEX|55=IGPA (Sin dividendos)|262=2cebbb5b86ce4dc0|268=1|269=3|270=14843.679343498|271=17714219484|290=15|811=-0.46|107=XSGO|10=016|
20160613-19:18:57.083: 8=FIX.4.4|9=183|35=W|34=16|49=TESTINDEX|52=20160613-19:19:00.767|56=FHINDEX|55=UTILITIES (Con dividendos)|262=2cebbb5b86ce4dc0|268=1|269=3|270=4890.211672106|271=4738201737|290=16|811=-0.66|107=XSGO|10=041|
20160613-19:18:57.083: 8=FIX.4.4|9=182|35=W|34=17|49=TESTINDEX|52=20160613-19:19:00.767|56=FHINDEX|55=INTER-10 (Con dividendos)|262=2cebbb5b86ce4dc0|268=1|269=3|270=4748.88955334|271=10940950835|290=17|811=-0.29|107=XSGO|10=148|
20160613-19:18:57.083: 8=FIX.4.4|9=185|35=W|34=18|49=TESTINDEX|52=20160613-19:19:00.767|56=FHINDEX|55=COMMODITIES (Con dividendos)|262=2cebbb5b86ce4dc0|268=1|269=3|270=2971.062368713|271=3117560293|290=18|811=-0.77|107=XSGO|10=181|
20160613-19:18:57.083: 8=FIX.4.4|9=179|35=W|34=19|49=TESTINDEX|52=20160613-19:19:00.767|56=FHINDEX|55=BANCA (Sin dividendos)|262=2cebbb5b86ce4dc0|268=1|269=3|270=4244.242744008|271=3841114635|290=19|811=-0.42|107=XSGO|10=201|
20160613-19:18:57.084: 8=FIX.4.4|9=179|35=W|34=20|49=TESTINDEX|52=20160613-19:19:00.767|56=FHINDEX|55=IPSA (Con dividendos)|262=2cebbb5b86ce4dc0|268=1|269=3|270=3936.773886277|271=17286968997|290=20|811=-0.45|107=XSGO|10=253|
20160613-19:18:57.084: 8=FIX.4.4|9=186|35=W|34=21|49=TESTINDEX|52=20160613-19:19:00.767|56=FHINDEX|55=IGPA LARGE (Con dividendos)|262=2cebbb5b86ce4dc0|268=1|269=3|270=17377.052771506|271=12299965057|290=21|811=-0.41|107=XSGO|10=133|
20160613-19:18:57.084: 8=FIX.4.4|9=186|35=W|34=22|49=TESTINDEX|52=20160613-19:19:00.767|56=FHINDEX|55=IGPA LARGE (Sin dividendos)|262=2cebbb5b86ce4dc0|268=1|269=3|270=13569.398010656|271=12299965057|290=22|811=-0.41|107=XSGO|10=149|
20160613-19:18:57.084: 8=FIX.4.4|9=182|35=W|34=23|49=TESTINDEX|52=20160613-19:19:00.768|56=FHINDEX|55=INDUSTRIAL (Sin dividendos)|262=2cebbb5b86ce4dc0|268=1|269=3|270=1417.219942622|271=634672257|290=23|811=-0.8|107=XSGO|10=017|
20160613-19:18:57.084: 8=FIX.4.4|9=180|35=W|34=24|49=TESTINDEX|52=20160613-19:19:00.768|56=FHINDEX|55=CONSUMO (Sin dividendos)|262=2cebbb5b86ce4dc0|268=1|269=3|270=3895.234465788|271=840764819|290=24|811=-1.29|107=XSGO|10=133|
20160613-19:18:57.085: 8=FIX.4.4|9=183|35=W|34=25|49=TESTINDEX|52=20160613-19:19:00.768|56=FHINDEX|55=IGPA MID (Con dividendos)|262=2cebbb5b86ce4dc0|268=1|269=3|270=18986.056097367|271=4173249095|290=25|811=-0.67|107=XSGO|10=216|
20160613-19:18:57.085: 8=FIX.4.4|9=184|35=W|34=26|49=TESTINDEX|52=20160613-19:19:00.768|56=FHINDEX|55=IGPA SMALL (Con dividendos)|262=2cebbb5b86ce4dc0|268=1|269=3|270=27272.713386658|271=928396815|290=26|811=-0.19|107=XSGO|10=070|
20160613-19:18:57.085: 8=FIX.4.4|9=183|35=W|34=27|49=TESTINDEX|52=20160613-19:19:00.769|56=FHINDEX|55=UTILITIES (Sin dividendos)|262=2cebbb5b86ce4dc0|268=1|269=3|270=3604.375947916|271=4738201737|290=27|811=-0.66|107=XSGO|10=074|
20160613-19:19:02.052: 8=FIX.4.4|9=179|35=X|34=28|49=TESTINDEX|52=20160613-19:19:05.738|56=FHINDEX|262=2cebbb5b86ce4dc0|268=1|279=1|269=3|55=INTER-10 (Sin dividendos)|270=3592.510423703|271=10944619318|290=1|811=-0.29|10=135|
20160613-19:19:02.052: 8=FIX.4.4|9=179|35=X|34=29|49=TESTINDEX|52=20160613-19:19:05.739|56=FHINDEX|262=2cebbb5b86ce4dc0|268=1|279=1|269=3|55=UTILITIES (Sin dividendos)|270=3604.375947916|271=4746737121|290=1|811=-0.66|10=022|
20160613-19:19:02.053: 8=FIX.4.4|9=175|35=X|34=30|49=TESTINDEX|52=20160613-19:19:05.740|56=FHINDEX|262=2cebbb5b86ce4dc0|268=1|279=1|269=3|55=IPSA (Con dividendos)|270=3936.773886277|271=17299172864|290=1|811=-0.45|10=176|
20160613-19:19:02.055: 8=FIX.4.4|9=175|35=X|34=31|49=TESTINDEX|52=20160613-19:19:05.743|56=FHINDEX|262=2cebbb5b86ce4dc0|268=1|279=1|269=3|55=BANCA (Sin dividendos)|270=4244.242744008|271=3844783118|290=1|811=-0.42|10=139|
20160613-19:19:02.059: 8=FIX.4.4|9=176|35=X|34=32|49=TESTINDEX|52=20160613-19:19:05.746|56=FHINDEX|262=2cebbb5b86ce4dc0|268=1|279=1|269=3|55=IGPA (Sin dividendos)|270=14843.679343498|271=17726423351|290=1|811=-0.46|10=214|
20160613-19:19:02.062: 8=FIX.4.4|9=175|35=X|34=33|49=TESTINDEX|52=20160613-19:19:05.749|56=FHINDEX|262=2cebbb5b86ce4dc0|268=1|279=1|269=3|55=BANCA (Con dividendos)|270=6873.775707782|271=3844783118|290=1|811=-0.42|10=166|
20160613-19:19:02.066: 8=FIX.4.4|9=179|35=X|34=34|49=TESTINDEX|52=20160613-19:19:05.753|56=FHINDEX|262=2cebbb5b86ce4dc0|268=1|279=1|269=3|55=IGPA MID (Con dividendos)|270=18986.056097367|271=4185452962|290=1|811=-0.67|10=163|
20160613-19:19:02.069: 8=FIX.4.4|9=178|35=X|34=35|49=TESTINDEX|52=20160613-19:19:05.756|56=FHINDEX|262=2cebbb5b86ce4dc0|268=1|279=1|269=3|55=INTER-10 (Con dividendos)|270=4748.88955334|271=10944619318|290=1|811=-0.29|10=098|
20160613-19:19:02.072: 8=FIX.4.4|9=179|35=X|34=36|49=TESTINDEX|52=20160613-19:19:05.759|56=FHINDEX|262=2cebbb5b86ce4dc0|268=1|279=1|269=3|55=UTILITIES (Con dividendos)|270=4890.211672106|271=4746737121|290=1|811=-0.66|10=251|
20160613-19:19:02.076: 8=FIX.4.4|9=175|35=X|34=37|49=TESTINDEX|52=20160613-19:19:05.763|56=FHINDEX|262=2cebbb5b86ce4dc0|268=1|279=1|269=3|55=IPSA (Sin dividendos)|270=3068.461381591|271=17299172864|290=1|811=-0.45|10=177|
20160613-19:19:02.080: 8=FIX.4.4|9=176|35=X|34=38|49=TESTINDEX|52=20160613-19:19:05.766|56=FHINDEX|262=2cebbb5b86ce4dc0|268=1|279=1|269=3|55=IGPA (Con dividendos)|270=19483.456544564|271=17726423351|290=1|811=-0.46|10=207|
20160613-19:19:02.083: 8=FIX.4.4|9=179|35=X|34=39|49=TESTINDEX|52=20160613-19:19:05.770|56=FHINDEX|262=2cebbb5b86ce4dc0|268=1|279=1|269=3|55=IGPA MID (Sin dividendos)|270=13556.415194875|271=4185452962|290=1|811=-0.67|10=166|
20160613-19:23:30.160: 8=FIX.4.4|9=77|35=A|34=1|49=FHINDEX|52=20160613-19:23:30.160|56=TESTINDEX|98=0|108=60|141=Y|10=238|
20160613-19:23:30.181: 8=FIX.4.4|9=77|35=A|34=1|49=TESTINDEX|52=20160613-19:23:33.873|56=FHINDEX|98=0|108=60|141=Y|10=252|
20160613-19:23:30.277: 8=FIX.4.4|9=136|35=V|34=2|49=FHINDEX|50=1|52=20160613-19:23:30.277|56=TESTINDEX|262=-45095f34a7f4becf|263=1|264=1|146=1|55=INDEXES|207=XSGO|267=1|269=3|10=110|
20160613-19:23:30.280: 8=FIX.4.4|9=182|35=W|34=2|49=TESTINDEX|52=20160613-19:23:33.979|56=FHINDEX|55=IGPA MID (Sin dividendos)|262=-45095f34a7f4becf|268=1|269=3|270=13553.527731714|271=4337811207|290=2|811=-0.69|107=XSGO|10=012|
20160613-19:23:30.285: 8=FIX.4.4|9=183|35=W|34=3|49=TESTINDEX|52=20160613-19:23:33.981|56=FHINDEX|55=IGPA SMALL (Sin dividendos)|262=-45095f34a7f4becf|268=1|269=3|270=19536.110168031|271=942891854|290=3|811=-0.22|107=XSGO|10=113|
20160613-19:23:30.285: 8=FIX.4.4|9=178|35=W|34=4|49=TESTINDEX|52=20160613-19:23:33.981|56=FHINDEX|55=BANCA (Con dividendos)|262=-45095f34a7f4becf|268=1|269=3|270=6870.915483402|271=3875605376|290=4|811=-0.46|107=XSGO|10=026|
20160613-19:23:30.285: 8=FIX.4.4|9=178|35=W|34=5|49=TESTINDEX|52=20160613-19:23:33.982|56=FHINDEX|55=RETAIL (Sin dividendos)|262=-45095f34a7f4becf|268=1|269=3|270=3961.717891369|271=2515689187|290=5|811=0.45|107=XSGO|10=116|
20160613-19:23:30.286: 8=FIX.4.4|9=179|35=W|34=6|49=TESTINDEX|52=20160613-19:23:33.982|56=FHINDEX|55=CONSUMO (Con dividendos)|262=-45095f34a7f4becf|268=1|269=3|270=5298.197813907|271=850167720|290=6|811=-1.29|107=XSGO|10=191|
20160613-19:23:30.286: 8=FIX.4.4|9=184|35=W|34=7|49=TESTINDEX|52=20160613-19:23:33.983|56=FHINDEX|55=CONST.&INMOB. (Con dividendos)|262=-45095f34a7f4becf|268=1|269=3|270=4035.193046806|271=55034849|290=7|811=-0.42|107=XSGO|10=208|
20160613-19:23:30.286: 8=FIX.4.4|9=184|35=W|34=8|49=TESTINDEX|52=20160613-19:23:33.983|56=FHINDEX|55=COMMODITIES (Sin dividendos)|262=-45095f34a7f4becf|268=1|269=3|270=2419.096981478|271=3121679172|290=8|811=-0.76|107=XSGO|10=022|
20160613-19:23:30.286: 8=FIX.4.4|9=181|35=W|34=9|49=TESTINDEX|52=20160613-19:23:33.983|56=FHINDEX|55=INTER-10 (Sin dividendos)|262=-45095f34a7f4becf|268=1|269=3|270=3591.981792454|271=11182369375|290=9|811=-0.3|107=XSGO|10=228|
20160613-19:23:30.286: 8=FIX.4.4|9=181|35=W|34=10|49=TESTINDEX|52=20160613-19:23:33.984|56=FHINDEX|55=IGPA (Con dividendos)|262=-45095f34a7f4becf|268=1|269=3|270=19481.178567932|271=18108005372|290=10|811=-0.47|107=XSGO|10=157|
20160613-19:23:30.287: 8=FIX.4.4|9=183|35=W|34=11|49=TESTINDEX|52=20160613-19:23:33.984|56=FHINDEX|55=INDUSTRIAL (Con dividendos)|262=-45095f34a7f4becf|268=1|269=3|270=1754.730513914|271=634757084|290=11|811=-0.8|107=XSGO|10=176|
20160613-19:23:30.287: 8=FIX.4.4|9=180|35=W|34=12|49=TESTINDEX|52=20160613-19:23:33.984|56=FHINDEX|55=IPSA (Sin dividendos)|262=-45095f34a7f4becf|268=1|269=3|270=3068.048686958|271=17680754885|290=12|811=-0.46|107=XSGO|10=157|
20160613-19:23:30.287: 8=FIX.4.4|9=186|35=W|34=13|49=TESTINDEX|52=20160613-19:23:33.985|56=FHINDEX|55=CONST.&INMOB. (Sin dividendos)|262=-45095f34a7f4becf|268=1|269=3|270=2743.023125221|271=55034849|290=13|811=-0.42|107=XSGO|10=041|
20160613-19:23:30.287: 8=FIX.4.4|9=180|35=W|34=14|49=TESTINDEX|52=20160613-19:23:33.985|56=FHINDEX|55=RETAIL (Con dividendos)|262=-45095f34a7f4becf|268=1|269=3|270=4661.943725978|271=2515689187|290=14|811=0.45|107=XSGO|10=199|
20160613-19:23:30.288: 8=FIX.4.4|9=181|35=W|34=15|49=TESTINDEX|52=20160613-19:23:33.985|56=FHINDEX|55=IGPA (Sin dividendos)|262=-45095f34a7f4becf|268=1|269=3|270=14841.943842685|271=18108005372|290=15|811=-0.47|107=XSGO|10=174|
20160613-19:23:30.288: 8=FIX.4.4|9=184|35=W|34=16|49=TESTINDEX|52=20160613-19:23:33.985|56=FHINDEX|55=UTILITIES (Con dividendos)|262=-45095f34a7f4becf|268=1|269=3|270=4890.211672106|271=4982517450|290=16|811=-0.66|107=XSGO|10=219|
20160613-19:23:30.288: 8=FIX.4.4|9=183|35=W|34=17|49=TESTINDEX|52=20160613-19:23:33.986|56=FHINDEX|55=INTER-10 (Con dividendos)|262=-45095f34a7f4becf|268=1|269=3|270=4748.190763046|271=11182369375|290=17|811=-0.3|107=XSGO|10=053|
20160613-19:23:30.288: 8=FIX.4.4|9=185|35=W|34=18|49=TESTINDEX|52=20160613-19:23:33.986|56=FHINDEX|55=COMMODITIES (Con dividendos)|262=-45095f34a7f4becf|268=1|269=3|270=2971.38756414|271=3121679172|290=18|811=-0.76|107=XSGO|10=055|
20160613-19:23:30.288: 8=FIX.4.4|9=180|35=W|34=19|49=TESTINDEX|52=20160613-19:23:33.986|56=FHINDEX|55=BANCA (Sin dividendos)|262=-45095f34a7f4becf|268=1|269=3|270=4242.476686009|271=3875605376|290=19|811=-0.46|107=XSGO|10=143|
20160613-19:23:30.288: 8=FIX.4.4|9=179|35=W|34=20|49=TESTINDEX|52=20160613-19:23:33.987|56=FHINDEX|55=IPSA (Con dividendos)|262=-45095f34a7f4becf|268=1|269=3|270=3936.24440741|271=17680754885|290=20|811=-0.46|107=XSGO|10=084|
20160613-19:23:30.289: 8=FIX.4.4|9=187|35=W|34=21|49=TESTINDEX|52=20160613-19:23:33.987|56=FHINDEX|55=IGPA LARGE (Con dividendos)|262=-45095f34a7f4becf|268=1|269=3|270=17375.714988062|271=12514693794|290=21|811=-0.42|107=XSGO|10=061|
20160613-19:23:30.289: 8=FIX.4.4|9=187|35=W|34=22|49=TESTINDEX|52=20160613-19:23:33.987|56=FHINDEX|55=IGPA LARGE (Sin dividendos)|262=-45095f34a7f4becf|268=1|269=3|270=13568.353361932|271=12514693794|290=22|811=-0.42|107=XSGO|10=063|
20160613-19:23:30.289: 8=FIX.4.4|9=183|35=W|34=23|49=TESTINDEX|52=20160613-19:23:33.987|56=FHINDEX|55=INDUSTRIAL (Sin dividendos)|262=-45095f34a7f4becf|268=1|269=3|270=1417.219942622|271=634757084|290=23|811=-0.8|107=XSGO|10=195|
20160613-19:23:30.289: 8=FIX.4.4|9=181|35=W|34=24|49=TESTINDEX|52=20160613-19:23:33.988|56=FHINDEX|55=CONSUMO (Sin dividendos)|262=-45095f34a7f4becf|268=1|269=3|270=3895.271810934|271=850167720|290=24|811=-1.29|107=XSGO|10=031|
20160613-19:23:30.289: 8=FIX.4.4|9=184|35=W|34=25|49=TESTINDEX|52=20160613-19:23:33.988|56=FHINDEX|55=IGPA MID (Con dividendos)|262=-45095f34a7f4becf|268=1|269=3|270=18982.012142033|271=4337811207|290=25|811=-0.69|107=XSGO|10=100|
20160613-19:23:30.290: 8=FIX.4.4|9=184|35=W|34=26|49=TESTINDEX|52=20160613-19:23:33.988|56=FHINDEX|55=IGPA SMALL (Con dividendos)|262=-45095f34a7f4becf|268=1|269=3|270=27266.35956031|271=942891854|290=26|811=-0.22|107=XSGO|10=179|
20160613-19:23:30.290: 8=FIX.4.4|9=184|35=W|34=27|49=TESTINDEX|52=20160613-19:23:33.988|56=FHINDEX|55=UTILITIES (Sin dividendos)|262=-45095f34a7f4becf|268=1|269=3|270=3604.375947916|271=4982517450|290=27|811=-0.66|107=XSGO|10=253|
20160613-19:25:08.660: 8=FIX.4.4|9=77|35=A|34=1|49=FHINDEX|52=20160613-19:25:08.660|56=TESTINDEX|98=0|108=60|141=Y|10=250|
20160613-19:25:08.682: 8=FIX.4.4|9=77|35=A|34=1|49=TESTINDEX|52=20160613-19:25:12.378|56=FHINDEX|98=0|108=60|141=Y|10=251|
20160613-19:25:08.790: 8=FIX.4.4|9=136|35=V|34=2|49=FHINDEX|50=1|52=20160613-19:25:08.790|56=TESTINDEX|262=-6586ea736421b72a|263=1|264=1|146=1|55=INDEXES|207=XSGO|267=1|269=3|10=225|
20160613-19:25:08.794: 8=FIX.4.4|9=182|35=W|34=2|49=TESTINDEX|52=20160613-19:25:12.497|56=FHINDEX|55=IGPA MID (Sin dividendos)|262=-6586ea736421b72a|268=1|269=3|270=13547.443794045|271=4454457111|290=2|811=-0.73|107=XSGO|10=115|
20160613-19:25:08.797: 8=FIX.4.4|9=183|35=W|34=3|49=TESTINDEX|52=20160613-19:25:12.498|56=FHINDEX|55=IGPA SMALL (Sin dividendos)|262=-6586ea736421b72a|268=1|269=3|270=19546.729912195|271=993524460|290=3|811=-0.16|107=XSGO|10=243|
20160613-19:25:08.798: 8=FIX.4.4|9=178|35=W|34=4|49=TESTINDEX|52=20160613-19:25:12.498|56=FHINDEX|55=BANCA (Con dividendos)|262=-6586ea736421b72a|268=1|269=3|270=6870.915483402|271=3884936282|290=4|811=-0.46|107=XSGO|10=139|
20160613-19:25:08.798: 8=FIX.4.4|9=178|35=W|34=5|49=TESTINDEX|52=20160613-19:25:12.499|56=FHINDEX|55=RETAIL (Sin dividendos)|262=-6586ea736421b72a|268=1|269=3|270=3961.717891369|271=2515689187|290=5|811=0.45|107=XSGO|10=226|
20160613-19:25:08.798: 8=FIX.4.4|9=179|35=W|34=6|49=TESTINDEX|52=20160613-19:25:12.499|56=FHINDEX|55=CONSUMO (Con dividendos)|262=-6586ea736421b72a|268=1|269=3|270=5298.197813907|271=850167720|290=6|811=-1.29|107=XSGO|10=045|
20160613-19:25:08.799: 8=FIX.4.4|9=184|35=W|34=7|49=TESTINDEX|52=20160613-19:25:12.499|56=FHINDEX|55=CONST.&INMOB. (Con dividendos)|262=-6586ea736421b72a|268=1|269=3|270=4035.193046806|271=55034849|290=7|811=-0.42|107=XSGO|10=061|
20160613-19:25:08.799: 8=FIX.4.4|9=184|35=W|34=8|49=TESTINDEX|52=20160613-19:25:12.499|56=FHINDEX|55=COMMODITIES (Sin dividendos)|262=-6586ea736421b72a|268=1|269=3|270=2419.616150232|271=3172959667|290=8|811=-0.74|107=XSGO|10=119|
20160613-19:25:08.799: 8=FIX.4.4|9=182|35=W|34=9|49=TESTINDEX|52=20160613-19:25:12.499|56=FHINDEX|55=INTER-10 (Sin dividendos)|262=-6586ea736421b72a|268=1|269=3|270=3591.094882787|271=11254482073|290=9|811=-0.33|107=XSGO|10=128|
20160613-19:25:08.799: 8=FIX.4.4|9=181|35=W|34=10|49=TESTINDEX|52=20160613-19:25:12.499|56=FHINDEX|55=IGPA (Con dividendos)|262=-6586ea736421b72a|268=1|269=3|270=19479.844980516|271=18294325584|290=10|811=-0.48|107=XSGO|10=030|
20160613-19:25:08.799: 8=FIX.4.4|9=184|35=W|34=11|49=TESTINDEX|52=20160613-19:25:12.500|56=FHINDEX|55=INDUSTRIAL (Con dividendos)|262=-6586ea736421b72a|268=1|269=3|270=1751.832483468|271=688475969|290=11|811=-0.96|107=XSGO|10=095|
20160613-19:25:08.799: 8=FIX.4.4|9=180|35=W|34=12|49=TESTINDEX|52=20160613-19:25:12.500|56=FHINDEX|55=IPSA (Sin dividendos)|262=-6586ea736421b72a|268=1|269=3|270=3067.807084669|271=17867075097|290=12|811=-0.47|107=XSGO|10=240|
20160613-19:25:08.800: 8=FIX.4.4|9=186|35=W|34=13|49=TESTINDEX|52=20160613-19:25:12.500|56=FHINDEX|55=CONST.&INMOB. (Sin dividendos)|262=-6586ea736421b72a|268=1|269=3|270=2743.023125221|271=55034849|290=13|811=-0.42|107=XSGO|10=131|
20160613-19:25:08.800: 8=FIX.4.4|9=180|35=W|34=14|49=TESTINDEX|52=20160613-19:25:12.500|56=FHINDEX|55=RETAIL (Con dividendos)|262=-6586ea736421b72a|268=1|269=3|270=4661.943725978|271=2515689187|290=14|811=0.45|107=XSGO|10=033|
20160613-19:25:08.800: 8=FIX.4.4|9=181|35=W|34=15|49=TESTINDEX|52=20160613-19:25:12.500|56=FHINDEX|55=IGPA (Sin dividendos)|262=-6586ea736421b72a|268=1|269=3|270=14840.927834876|271=18294325584|290=15|811=-0.48|107=XSGO|10=029|
20160613-19:25:08.800: 8=FIX.4.4|9=184|35=W|34=16|49=TESTINDEX|52=20160613-19:25:12.500|56=FHINDEX|55=UTILITIES (Con dividendos)|262=-6586ea736421b72a|268=1|269=3|270=4890.092976725|271=4991580357|290=16|811=-0.66|107=XSGO|10=080|
20160613-19:25:08.800: 8=FIX.4.4|9=184|35=W|34=17|49=TESTINDEX|52=20160613-19:25:12.501|56=FHINDEX|55=INTER-10 (Con dividendos)|262=-6586ea736421b72a|268=1|269=3|270=4747.018369496|271=11254482073|290=17|811=-0.33|107=XSGO|10=195|
20160613-19:25:08.800: 8=FIX.4.4|9=186|35=W|34=18|49=TESTINDEX|52=20160613-19:25:12.501|56=FHINDEX|55=COMMODITIES (Con dividendos)|262=-6586ea736421b72a|268=1|269=3|270=2972.025261426|271=3172959667|290=18|811=-0.74|107=XSGO|10=199|
20160613-19:25:08.801: 8=FIX.4.4|9=180|35=W|34=19|49=TESTINDEX|52=20160613-19:25:12.501|56=FHINDEX|55=BANCA (Sin dividendos)|262=-6586ea736421b72a|268=1|269=3|270=4242.476686009|271=3884936282|290=19|811=-0.46|107=XSGO|10=236|
20160613-19:25:08.801: 8=FIX.4.4|9=179|35=W|34=20|49=TESTINDEX|52=20160613-19:25:12.501|56=FHINDEX|55=IPSA (Con dividendos)|262=-6586ea736421b72a|268=1|269=3|270=3935.93443656|271=17867075097|290=20|811=-0.47|107=XSGO|10=185|
20160613-19:25:08.801: 8=FIX.4.4|9=187|35=W|34=21|49=TESTINDEX|52=20160613-19:25:12.501|56=FHINDEX|55=IGPA LARGE (Con dividendos)|262=-6586ea736421b72a|268=1|269=3|270=17374.291190675|271=12533735496|290=21|811=-0.43|107=XSGO|10=142|
20160613-19:25:08.801: 8=FIX.4.4|9=187|35=W|34=22|49=TESTINDEX|52=20160613-19:25:12.501|56=FHINDEX|55=IGPA LARGE (Sin dividendos)|262=-6586ea736421b72a|268=1|269=3|270=13567.241546615|271=12533735496|290=22|811=-0.43|107=XSGO|10=148|
